{
  "_format": "hh-sol-artifact-1",
  "contractName": "EncryptedUSDCSimple",
  "sourceName": "contracts/tokens/EncryptedUSDCSimple.sol",
  "abi": [
    {
      "inputs": [
        {
          "internalType": "address",
          "name": "_backingToken",
          "type": "address"
        },
        {
          "internalType": "address",
          "name": "_zswapPool",
          "type": "address"
        }
      ],
      "stateMutability": "nonpayable",
      "type": "constructor"
    },
    {
      "anonymous": false,
      "inputs": [
        {
          "indexed": true,
          "internalType": "address",
          "name": "user",
          "type": "address"
        },
        {
          "indexed": false,
          "internalType": "uint256",
          "name": "amount",
          "type": "uint256"
        }
      ],
      "name": "Deposit",
      "type": "event"
    },
    {
      "anonymous": false,
      "inputs": [
        {
          "indexed": true,
          "internalType": "address",
          "name": "from",
          "type": "address"
        },
        {
          "indexed": true,
          "internalType": "address",
          "name": "to",
          "type": "address"
        }
      ],
      "name": "EncryptedTransfer",
      "type": "event"
    },
    {
      "anonymous": false,
      "inputs": [
        {
          "indexed": true,
          "internalType": "address",
          "name": "pool",
          "type": "address"
        }
      ],
      "name": "PoolInitialized",
      "type": "event"
    },
    {
      "anonymous": false,
      "inputs": [
        {
          "indexed": true,
          "internalType": "address",
          "name": "user",
          "type": "address"
        },
        {
          "indexed": false,
          "internalType": "uint256",
          "name": "amount",
          "type": "uint256"
        }
      ],
      "name": "Withdraw",
      "type": "event"
    },
    {
      "inputs": [],
      "name": "backingToken",
      "outputs": [
        {
          "internalType": "address",
          "name": "",
          "type": "address"
        }
      ],
      "stateMutability": "view",
      "type": "function"
    },
    {
      "inputs": [
        {
          "internalType": "address",
          "name": "user",
          "type": "address"
        }
      ],
      "name": "balanceOf",
      "outputs": [
        {
          "internalType": "uint128",
          "name": "",
          "type": "uint128"
        }
      ],
      "stateMutability": "view",
      "type": "function"
    },
    {
      "inputs": [],
      "name": "decimals",
      "outputs": [
        {
          "internalType": "uint8",
          "name": "",
          "type": "uint8"
        }
      ],
      "stateMutability": "view",
      "type": "function"
    },
    {
      "inputs": [
        {
          "internalType": "uint128",
          "name": "amount",
          "type": "uint128"
        }
      ],
      "name": "deposit",
      "outputs": [],
      "stateMutability": "nonpayable",
      "type": "function"
    },
    {
      "inputs": [
        {
          "internalType": "address",
          "name": "",
          "type": "address"
        }
      ],
      "name": "encryptedBalances",
      "outputs": [
        {
          "internalType": "uint128",
          "name": "",
          "type": "uint128"
        }
      ],
      "stateMutability": "view",
      "type": "function"
    },
    {
      "inputs": [
        {
          "internalType": "address",
          "name": "_zswapPool",
          "type": "address"
        }
      ],
      "name": "initializePool",
      "outputs": [],
      "stateMutability": "nonpayable",
      "type": "function"
    },
    {
      "inputs": [],
      "name": "name",
      "outputs": [
        {
          "internalType": "string",
          "name": "",
          "type": "string"
        }
      ],
      "stateMutability": "view",
      "type": "function"
    },
    {
      "inputs": [],
      "name": "owner",
      "outputs": [
        {
          "internalType": "address",
          "name": "",
          "type": "address"
        }
      ],
      "stateMutability": "view",
      "type": "function"
    },
    {
      "inputs": [],
      "name": "poolInitialized",
      "outputs": [
        {
          "internalType": "bool",
          "name": "",
          "type": "bool"
        }
      ],
      "stateMutability": "view",
      "type": "function"
    },
    {
      "inputs": [],
      "name": "symbol",
      "outputs": [
        {
          "internalType": "string",
          "name": "",
          "type": "string"
        }
      ],
      "stateMutability": "view",
      "type": "function"
    },
    {
      "inputs": [
        {
          "internalType": "address",
          "name": "from",
          "type": "address"
        },
        {
          "internalType": "address",
          "name": "to",
          "type": "address"
        },
        {
          "internalType": "uint128",
          "name": "amount",
          "type": "uint128"
        }
      ],
      "name": "transferEncrypted",
      "outputs": [],
      "stateMutability": "nonpayable",
      "type": "function"
    },
    {
      "inputs": [
        {
          "internalType": "uint128",
          "name": "amount",
          "type": "uint128"
        }
      ],
      "name": "withdraw",
      "outputs": [],
      "stateMutability": "nonpayable",
      "type": "function"
    },
    {
      "inputs": [],
      "name": "zswapPool",
      "outputs": [
        {
          "internalType": "address",
          "name": "",
          "type": "address"
        }
      ],
      "stateMutability": "view",
      "type": "function"
    }
  ],
  "bytecode": "0x60a060405234801561001057600080fd5b50604051610b96380380610b9683398101604081905261002f9161009c565b6001600160a01b03918216608052600080546001600160a01b03191691909216908117909155600180546001600160a81b0319163360ff60a01b191617911515600160a01b029190911790556100cf565b80516001600160a01b038116811461009757600080fd5b919050565b600080604083850312156100af57600080fd5b6100b883610080565b91506100c660208401610080565b90509250929050565b608051610a9e6100f86000396000818161019f015281816103bb01526106370152610a9e6000f3fe608060405234801561001057600080fd5b50600436106100cf5760003560e01c806354469aea1161008c57806395d89b411161006657806395d89b4114610231578063ab5a4d7814610255578063b98ad25514610268578063e5cd48c31461028c57600080fd5b806354469aea146101d957806370a08231146101ec5780638da5cb5b1461021e57600080fd5b806302387a7b146100d457806306fdde03146100e95780631257b76f1461012c578063313ce5671461016d578063407431f71461018757806347e621b71461019a575b600080fd5b6100e76100e2366004610903565b61029f565b005b6101166040518060400160405280600e81526020016d2d29bbb0b8102aa9a21021b7b4b760911b81525081565b6040516101239190610925565b60405180910390f35b61015561013a36600461098b565b6002602052600090815260409020546001600160801b031681565b6040516001600160801b039091168152602001610123565b610175600681565b60405160ff9091168152602001610123565b6100e761019536600461098b565b610474565b6101c17f000000000000000000000000000000000000000000000000000000000000000081565b6040516001600160a01b039091168152602001610123565b6100e76101e7366004610903565b6105be565b6101556101fa36600461098b565b6001600160a01b03166000908152600260205260409020546001600160801b031690565b6001546101c1906001600160a01b031681565b610116604051806040016040528060058152602001647a5553444360d81b81525081565b6100e76102633660046109a6565b61073d565b60015461027c90600160a01b900460ff1681565b6040519015158152602001610123565b6000546101c1906001600160a01b031681565b6000816001600160801b0316116102f45760405162461bcd60e51b815260206004820152601460248201527343616e6e6f74207769746864726177207a65726f60601b60448201526064015b60405180910390fd5b336000908152600260205260409020546001600160801b03808316911610156103565760405162461bcd60e51b8152602060048201526014602482015273496e73756666696369656e742062616c616e636560601b60448201526064016102eb565b336000908152600260205260408120805483929061037e9084906001600160801b03166109ff565b82546101009290920a6001600160801b0381810219909316918316021790915560405163a9059cbb60e01b815233600482015290831660248201527f00000000000000000000000000000000000000000000000000000000000000006001600160a01b0316915063a9059cbb906044016020604051808303816000875af115801561040d573d6000803e3d6000fd5b505050506040513d601f19601f820116820180604052508101906104319190610a26565b506040516001600160801b038216815233907f884edad9ce6fa2440d8a54cc123490eb96d2768479d49ff9c7366125a9424364906020015b60405180910390a250565b6001546001600160a01b031633146104bb5760405162461bcd60e51b815260206004820152600a60248201526927b7363c9037bbb732b960b11b60448201526064016102eb565b600154600160a01b900460ff16156105155760405162461bcd60e51b815260206004820152601860248201527f506f6f6c20616c726561647920696e697469616c697a6564000000000000000060448201526064016102eb565b6001600160a01b0381166105625760405162461bcd60e51b8152602060048201526014602482015273496e76616c696420706f6f6c206164647265737360601b60448201526064016102eb565b600080546001600160a01b0383166001600160a01b0319909116811782556001805460ff60a01b1916600160a01b17905560405190917fcad8c9d32507393b6508ca4a888b81979919b477510585bde8488f153072d6f391a250565b6000816001600160801b03161161060d5760405162461bcd60e51b815260206004820152601360248201527243616e6e6f74206465706f736974207a65726f60681b60448201526064016102eb565b6040516323b872dd60e01b81523360048201523060248201526001600160801b03821660448201527f00000000000000000000000000000000000000000000000000000000000000006001600160a01b0316906323b872dd906064016020604051808303816000875af1158015610688573d6000803e3d6000fd5b505050506040513d601f19601f820116820180604052508101906106ac9190610a26565b5033600090815260026020526040812080548392906106d59084906001600160801b0316610a48565b92506101000a8154816001600160801b0302191690836001600160801b03160217905550336001600160a01b03167fe1fffcc4923d04b559f4d29a8bfc6cda04eb5b0d3c460751c2402c5c5cc9109c826001600160801b031660405161046991815260200190565b6000546001600160a01b031633146107975760405162461bcd60e51b815260206004820152601c60248201527f4f6e6c79205a5377617020706f6f6c2063616e207472616e736665720000000060448201526064016102eb565b6001600160a01b0383166000908152600260205260409020546001600160801b03808316911610156108025760405162461bcd60e51b8152602060048201526014602482015273496e73756666696369656e742062616c616e636560601b60448201526064016102eb565b6001600160a01b038316600090815260026020526040812080548392906108339084906001600160801b03166109ff565b82546101009290920a6001600160801b038181021990931691831602179091556001600160a01b03841660009081526002602052604081208054859450909261087e91859116610a48565b92506101000a8154816001600160801b0302191690836001600160801b03160217905550816001600160a01b0316836001600160a01b03167f8fb556326f22f916c68b89ac61b2b94546e36d300cdf1f2398ecaada4b25740060405160405180910390a3505050565b80356001600160801b03811681146108fe57600080fd5b919050565b60006020828403121561091557600080fd5b61091e826108e7565b9392505050565b60006020808352835180602085015260005b8181101561095357858101830151858201604001528201610937565b506000604082860101526040601f19601f8301168501019250505092915050565b80356001600160a01b03811681146108fe57600080fd5b60006020828403121561099d57600080fd5b61091e82610974565b6000806000606084860312156109bb57600080fd5b6109c484610974565b92506109d260208501610974565b91506109e0604085016108e7565b90509250925092565b634e487b7160e01b600052601160045260246000fd5b6001600160801b03828116828216039080821115610a1f57610a1f6109e9565b5092915050565b600060208284031215610a3857600080fd5b8151801515811461091e57600080fd5b6001600160801b03818116838216019080821115610a1f57610a1f6109e956fea264697066735822122022f011d1131375e78d5165b878d8ad2e5bbd397f375e43e8cced468474ba2a6964736f6c63430008180033",
  "linkReferences": {},
  "deployedLinkReferences": {}
}