{"contracts/core/ZSwapSimple.sol":{"ZSwapSimple":{"abi":[{"inputs":[{"internalType":"address","name":"_encryptedUSDC","type":"address"},{"internalType":"address","name":"_encryptedUSDT","type":"address"}],"stateMutability":"nonpayable","type":"constructor"},{"anonymous":false,"inputs":[{"indexed":true,"internalType":"address","name":"avsOperator","type":"address"},{"indexed":false,"internalType":"bool","name":"authorized","type":"bool"}],"name":"AVSAuthorizationChanged","type":"event"},{"anonymous":false,"inputs":[{"indexed":true,"internalType":"uint256","name":"batchId","type":"uint256"},{"indexed":false,"internalType":"uint256","name":"matchedAmount","type":"uint256"},{"indexed":false,"internalType":"uint256","name":"netSwappedAmount","type":"uint256"},{"indexed":false,"internalType":"uint256","name":"executedIntents","type":"uint256"}],"name":"BatchProcessed","type":"event"},{"anonymous":false,"inputs":[{"indexed":true,"internalType":"uint256","name":"batchId","type":"uint256"},{"indexed":false,"internalType":"uint256","name":"sealBlock","type":"uint256"},{"indexed":false,"internalType":"uint256","name":"totalIntents","type":"uint256"}],"name":"BatchSealed","type":"event"},{"anonymous":false,"inputs":[{"indexed":true,"internalType":"uint256","name":"intentId","type":"uint256"},{"indexed":true,"internalType":"address","name":"user","type":"address"}],"name":"IntentExecuted","type":"event"},{"anonymous":false,"inputs":[{"indexed":true,"internalType":"uint256","name":"intentId","type":"uint256"},{"indexed":true,"internalType":"address","name":"user","type":"address"},{"indexed":false,"internalType":"address","name":"tokenIn","type":"address"},{"indexed":false,"internalType":"address","name":"tokenOut","type":"address"},{"indexed":false,"internalType":"uint256","name":"batchId","type":"uint256"}],"name":"IntentSubmitted","type":"event"},{"anonymous":false,"inputs":[{"indexed":false,"internalType":"bool","name":"paused","type":"bool"}],"name":"PauseChanged","type":"event"},{"inputs":[],"name":"BATCH_WINDOW","outputs":[{"internalType":"uint256","name":"","type":"uint256"}],"stateMutability":"view","type":"function"},{"inputs":[{"internalType":"address","name":"","type":"address"}],"name":"authorizedAVS","outputs":[{"internalType":"bool","name":"","type":"bool"}],"stateMutability":"view","type":"function"},{"inputs":[{"internalType":"uint256","name":"","type":"uint256"}],"name":"batches","outputs":[{"internalType":"uint256","name":"batchId","type":"uint256"},{"internalType":"uint256","name":"sealBlock","type":"uint256"},{"internalType":"bool","name":"isSealed","type":"bool"},{"internalType":"bool","name":"isProcessed","type":"bool"},{"internalType":"uint256","name":"totalIntents","type":"uint256"}],"stateMutability":"view","type":"function"},{"inputs":[],"name":"currentBatchId","outputs":[{"internalType":"uint256","name":"","type":"uint256"}],"stateMutability":"view","type":"function"},{"inputs":[],"name":"encryptedUSDC","outputs":[{"internalType":"address","name":"","type":"address"}],"stateMutability":"view","type":"function"},{"inputs":[],"name":"encryptedUSDT","outputs":[{"internalType":"address","name":"","type":"address"}],"stateMutability":"view","type":"function"},{"inputs":[{"internalType":"uint256","name":"batchId","type":"uint256"}],"name":"getBatchIntents","outputs":[{"internalType":"uint256[]","name":"","type":"uint256[]"}],"stateMutability":"view","type":"function"},{"inputs":[],"name":"getCurrentBatchInfo","outputs":[{"internalType":"uint256","name":"batchId","type":"uint256"},{"internalType":"uint256","name":"sealBlock","type":"uint256"},{"internalType":"uint256","name":"pendingIntents","type":"uint256"}],"stateMutability":"view","type":"function"},{"inputs":[{"internalType":"address","name":"user","type":"address"}],"name":"getUserIntents","outputs":[{"internalType":"uint256[]","name":"","type":"uint256[]"}],"stateMutability":"view","type":"function"},{"inputs":[{"internalType":"uint256","name":"","type":"uint256"}],"name":"intents","outputs":[{"internalType":"uint256","name":"intentId","type":"uint256"},{"internalType":"address","name":"user","type":"address"},{"internalType":"address","name":"tokenIn","type":"address"},{"internalType":"address","name":"tokenOut","type":"address"},{"internalType":"uint128","name":"amount","type":"uint128"},{"internalType":"uint256","name":"batchId","type":"uint256"},{"internalType":"uint256","name":"timestamp","type":"uint256"},{"internalType":"enum ZSwapSimple.IntentStatus","name":"status","type":"uint8"}],"stateMutability":"view","type":"function"},{"inputs":[],"name":"nextIntentId","outputs":[{"internalType":"uint256","name":"","type":"uint256"}],"stateMutability":"view","type":"function"},{"inputs":[],"name":"owner","outputs":[{"internalType":"address","name":"","type":"address"}],"stateMutability":"view","type":"function"},{"inputs":[],"name":"paused","outputs":[{"internalType":"bool","name":"","type":"bool"}],"stateMutability":"view","type":"function"},{"inputs":[{"internalType":"address","name":"avsOperator","type":"address"},{"internalType":"bool","name":"authorized","type":"bool"}],"name":"setAVSAuthorization","outputs":[],"stateMutability":"nonpayable","type":"function"},{"inputs":[{"internalType":"bool","name":"_paused","type":"bool"}],"name":"setPaused","outputs":[],"stateMutability":"nonpayable","type":"function"},{"inputs":[{"internalType":"uint256","name":"batchId","type":"uint256"},{"internalType":"uint256","name":"matchedAmount","type":"uint256"},{"internalType":"uint256","name":"netSwappedAmount","type":"uint256"},{"internalType":"uint256[]","name":"successfulIntentIds","type":"uint256[]"}],"name":"settleBatch","outputs":[],"stateMutability":"nonpayable","type":"function"},{"inputs":[{"internalType":"address","name":"tokenIn","type":"address"},{"internalType":"address","name":"tokenOut","type":"address"},{"internalType":"uint128","name":"amount","type":"uint128"}],"name":"submitIntent","outputs":[{"internalType":"uint256","name":"intentId","type":"uint256"}],"stateMutability":"nonpayable","type":"function"},{"inputs":[{"internalType":"address","name":"newOwner","type":"address"}],"name":"transferOwnership","outputs":[],"stateMutability":"nonpayable","type":"function"},{"inputs":[{"internalType":"address","name":"","type":"address"},{"internalType":"uint256","name":"","type":"uint256"}],"name":"userIntents","outputs":[{"internalType":"uint256","name":"","type":"uint256"}],"stateMutability":"view","type":"function"}],"evm":{"bytecode":{"linkReferences":{},"object":"60c060405260016007553480156200001657600080fd5b5060405162001474380380620014748339810160408190526200003991620000e0565b6001600160a01b03808316608052811660a052600080546001600160a01b031916331790556200006b6005436200012e565b600181905560008181526004602052604090205560056200008d81436200012e565b6200009a90600162000151565b620000a691906200016d565b600180546000908152600460205260409020015550620001879050565b80516001600160a01b0381168114620000db57600080fd5b919050565b60008060408385031215620000f457600080fd5b620000ff83620000c3565b91506200010f60208401620000c3565b90509250929050565b634e487b7160e01b600052601160045260246000fd5b6000826200014c57634e487b7160e01b600052601260045260246000fd5b500490565b8082018082111562000167576200016762000118565b92915050565b808202811582820484141762000167576200016762000118565b60805160a0516112ab620001c9600039600081816103000152818161096b01526109a70152600081816102250152818161092f01526109e301526112ab6000f3fe608060405234801561001057600080fd5b50600436106101215760003560e01c806372674eb6116100ad578063b32c4d8d11610071578063b32c4d8d14610322578063bd97661c14610394578063df24cf7e146103b4578063f2fde38b146103c7578063fa3209b2146103da57600080fd5b806372674eb61461028e57806389c9c3ae146102cc5780638da5cb5b146102df5780639b7b7b1e146102f2578063b04b050f146102fb57600080fd5b80634ab25c71116100f45780634ab25c711461020d5780634c87a631146102205780635c975abb1461025f5780635f45e29214610273578063624d83cc1461027b57600080fd5b80630a763da11461012657806316c38b3c14610142578063467c89e91461015757806346a1a0951461018a575b600080fd5b61012f60015481565b6040519081526020015b60405180910390f35b610155610150366004610f3e565b6103ed565b005b61017a610165366004610f77565b60066020526000908152604090205460ff1681565b6040519015158152602001610139565b6101f9610198366004610f92565b60036020819052600091825260409091208054600182015460028301549383015460048401546005850154600686015460079096015494966001600160a01b03948516969085169594909316936001600160801b0390921692909160ff1688565b604051610139989796959493929190610fc1565b61015561021b366004611036565b610478565b6102477f000000000000000000000000000000000000000000000000000000000000000081565b6040516001600160a01b039091168152602001610139565b60005461017a90600160a01b900460ff1681565b61012f600581565b6101556102893660046110c6565b61076d565b6102b1600180546000818152600460208190526040909120928301549201549092565b60408051938452602084019290925290820152606001610139565b61012f6102da3660046110f9565b6107f7565b600054610247906001600160a01b031681565b61012f60025481565b6102477f000000000000000000000000000000000000000000000000000000000000000081565b610366610330366004610f92565b6004602081905260009182526040909120805460018201546003830154929093015490929160ff80821692610100909204169085565b604080519586526020860194909452911515928401929092529015156060830152608082015260a001610139565b6103a76103a2366004610f92565b610828565b6040516101399190611123565b61012f6103c2366004611167565b61088d565b6101556103d5366004610f77565b610cfe565b6103a76103e8366004610f77565b610d92565b6000546001600160a01b031633146104205760405162461bcd60e51b8152600401610417906111ba565b60405180910390fd5b60008054821515600160a01b0260ff60a01b199091161790556040517f8fb6c181ee25a520cf3dd6565006ef91229fcfe5a989566c2a3b8c115570cec59061046d90831515815260200190565b60405180910390a150565b3360009081526006602052604090205460ff166104cc5760405162461bcd60e51b81526020600482015260126024820152714e6f7420617574686f72697a65642041565360701b6044820152606401610417565b6007546001146105145760405162461bcd60e51b81526020600482015260136024820152721499595b9d1c985b98de4819195d1958dd1959606a1b6044820152606401610417565b60026007556000858152600460205260409020600381015460ff1661056e5760405162461bcd60e51b815260206004820152601060248201526f10985d18da081b9bdd081cd9585b195960821b6044820152606401610417565b6003810154610100900460ff16156105c85760405162461bcd60e51b815260206004820152601760248201527f426174636820616c72656164792070726f6365737365640000000000000000006044820152606401610417565b60038101805461ff00191661010017905560005b8281101561071c5760008484838181106105f8576105f86111de565b90506020020135905060006003600083815260200190815260200160002090508881600501541461066b5760405162461bcd60e51b815260206004820152601860248201527f496e74656e74206e6f7420696e207468697320626174636800000000000000006044820152606401610417565b6001600782015460ff16600481111561068657610686610fab565b146106c75760405162461bcd60e51b8152602060048201526011602482015270125b9d195b9d081b9bdd081cd9585b1959607a1b6044820152606401610417565b60078101805460ff1916600217905560018101546040516001600160a01b039091169083907f6852407858602d696344801f0181bc507c808c727c914bb6cdfeabd42431af3890600090a350506001016105dc565b50604080518681526020810186905290810183905286907f59d088174aee33f5ff817f6507a076513b43d5b623c805aaca6d79677742f6e79060600160405180910390a25050600160075550505050565b6000546001600160a01b031633146107975760405162461bcd60e51b8152600401610417906111ba565b6001600160a01b038216600081815260066020908152604091829020805460ff191685151590811790915591519182527fac940349638bd695c8726a646919340e350e03d1fdb7499b54430a2889817d7691015b60405180910390a25050565b6005602052816000526040600020818154811061081357600080fd5b90600052602060002001600091509150505481565b60008181526004602090815260409182902060020180548351818402810184019094528084526060939283018282801561088157602002820191906000526020600020905b81548152602001906001019080831161086d575b50505050509050919050565b60008054600160a01b900460ff16156108dd5760405162461bcd60e51b815260206004820152601260248201527110dbdb9d1c9858dd081a5cc81c185d5cd95960721b6044820152606401610417565b6007546001146109255760405162461bcd60e51b81526020600482015260136024820152721499595b9d1c985b98de4819195d1958dd1959606a1b6044820152606401610417565b60026007819055507f00000000000000000000000000000000000000000000000000000000000000006001600160a01b0316846001600160a01b031614801561099f57507f00000000000000000000000000000000000000000000000000000000000000006001600160a01b0316836001600160a01b0316145b80610a1757507f00000000000000000000000000000000000000000000000000000000000000006001600160a01b0316846001600160a01b0316148015610a1757507f00000000000000000000000000000000000000000000000000000000000000006001600160a01b0316836001600160a01b0316145b610a585760405162461bcd60e51b815260206004820152601260248201527124b73b30b634b2103a37b5b2b7103830b4b960711b6044820152606401610417565b60006005610a66814361120a565b610a7190600161122c565b610a7b9190611245565b60018054600090815260046020526040902001549091504310610ad257610aa3600154610dfc565b60018054906000610ab38361125c565b9091555050600180546000818152600460205260409020908155018190555b60028054906000610ae28361125c565b919050559150604051806101000160405280838152602001336001600160a01b03168152602001866001600160a01b03168152602001856001600160a01b03168152602001846001600160801b03168152602001600154815260200142815260200160006004811115610b5757610b57610fab565b90526000838152600360208181526040928390208451815590840151600180830180546001600160a01b03199081166001600160a01b03948516179091559486015160028401805487169184169190911790556060860151938301805490951693909116929092179092556080830151600480840180546fffffffffffffffffffffffffffffffff19166001600160801b039093169290921790915560a0840151600584015560c0840151600684015560e08401516007840180549193909260ff19909216918490811115610c2e57610c2e610fab565b02179055505060018054600090815260046020818152604080842060020180548087018255908552918420909101879055925482529181209091018054925090610c778361125c565b909155505033600081815260056020908152604080832080546001808201835591855293839020909301869055915482516001600160a01b038a8116825289169281019290925281830152905184917fe70703ac29278fc0840293572932f539f37b9348ceabe01d6e1881a0e32cced0919081900360600190a35060016007559392505050565b6000546001600160a01b03163314610d285760405162461bcd60e51b8152600401610417906111ba565b6001600160a01b038116610d705760405162461bcd60e51b815260206004820152600f60248201526e496e76616c6964206164647265737360881b6044820152606401610417565b600080546001600160a01b0319166001600160a01b0392909216919091179055565b6001600160a01b038116600090815260056020908152604091829020805483518184028101840190945280845260609392830182828015610881576020028201919060005260206000209081548152602001906001019080831161086d5750505050509050919050565b6000818152600460205260409020600381015460ff1615610e565760405162461bcd60e51b815260206004820152601460248201527310985d18da08185b1c9958591e481cd9585b195960621b6044820152606401610417565b60038101805460ff1916600117905560005b6002820154811015610ee9576000826002018281548110610e8b57610e8b6111de565b6000918252602082200154915060008281526003602052604090206007015460ff166004811115610ebe57610ebe610fab565b03610ee0576000818152600360205260409020600701805460ff191660011790555b50600101610e68565b50817fbb1da96a0aac1a1cfa17df5c7eb23d7078c7c2d3570bba1fbedbfb24291c67594383600401546040516107eb929190918252602082015260400190565b80358015158114610f3957600080fd5b919050565b600060208284031215610f5057600080fd5b610f5982610f29565b9392505050565b80356001600160a01b0381168114610f3957600080fd5b600060208284031215610f8957600080fd5b610f5982610f60565b600060208284031215610fa457600080fd5b5035919050565b634e487b7160e01b600052602160045260246000fd5b8881526001600160a01b0388811660208301528781166040830152861660608201526001600160801b038516608082015260a0810184905260c0810183905261010081016005831061102357634e487b7160e01b600052602160045260246000fd5b8260e08301529998505050505050505050565b60008060008060006080868803121561104e57600080fd5b853594506020860135935060408601359250606086013567ffffffffffffffff8082111561107b57600080fd5b818801915088601f83011261108f57600080fd5b81358181111561109e57600080fd5b8960208260051b85010111156110b357600080fd5b9699959850939650602001949392505050565b600080604083850312156110d957600080fd5b6110e283610f60565b91506110f060208401610f29565b90509250929050565b6000806040838503121561110c57600080fd5b61111583610f60565b946020939093013593505050565b6020808252825182820181905260009190848201906040850190845b8181101561115b5783518352928401929184019160010161113f565b50909695505050505050565b60008060006060848603121561117c57600080fd5b61118584610f60565b925061119360208501610f60565b915060408401356001600160801b03811681146111af57600080fd5b809150509250925092565b6020808252600a908201526927b7363c9037bbb732b960b11b604082015260600190565b634e487b7160e01b600052603260045260246000fd5b634e487b7160e01b600052601160045260246000fd5b60008261122757634e487b7160e01b600052601260045260246000fd5b500490565b8082018082111561123f5761123f6111f4565b92915050565b808202811582820484141761123f5761123f6111f4565b60006001820161126e5761126e6111f4565b506001019056fea264697066735822122061fda28c4f283fb57da76642c143aef86195db0cb6278a62483b96184ff5b80964736f6c63430008180033","opcodes":"PUSH1 0xC0 PUSH1 0x40 MSTORE PUSH1 0x1 PUSH1 0x7 SSTORE CALLVALUE DUP1 ISZERO PUSH3 0x16 JUMPI PUSH1 0x0 DUP1 REVERT JUMPDEST POP PUSH1 0x40 MLOAD PUSH3 0x1474 CODESIZE SUB DUP1 PUSH3 0x1474 DUP4 CODECOPY DUP2 ADD PUSH1 0x40 DUP2 SWAP1 MSTORE PUSH3 0x39 SWAP2 PUSH3 0xE0 JUMP JUMPDEST PUSH1 0x1 PUSH1 0x1 PUSH1 0xA0 SHL SUB DUP1 DUP4 AND PUSH1 0x80 MSTORE DUP2 AND PUSH1 0xA0 MSTORE PUSH1 0x0 DUP1 SLOAD PUSH1 0x1 PUSH1 0x1 PUSH1 0xA0 SHL SUB NOT AND CALLER OR SWAP1 SSTORE PUSH3 0x6B PUSH1 0x5 NUMBER PUSH3 0x12E JUMP JUMPDEST PUSH1 0x1 DUP2 SWAP1 SSTORE PUSH1 0x0 DUP2 DUP2 MSTORE PUSH1 0x4 PUSH1 0x20 MSTORE PUSH1 0x40 SWAP1 KECCAK256 SSTORE PUSH1 0x5 PUSH3 0x8D DUP2 NUMBER PUSH3 0x12E JUMP JUMPDEST PUSH3 0x9A SWAP1 PUSH1 0x1 PUSH3 0x151 JUMP JUMPDEST PUSH3 0xA6 SWAP2 SWAP1 PUSH3 0x16D JUMP JUMPDEST PUSH1 0x1 DUP1 SLOAD PUSH1 0x0 SWAP1 DUP2 MSTORE PUSH1 0x4 PUSH1 0x20 MSTORE PUSH1 0x40 SWAP1 KECCAK256 ADD SSTORE POP PUSH3 0x187 SWAP1 POP JUMP JUMPDEST DUP1 MLOAD PUSH1 0x1 PUSH1 0x1 PUSH1 0xA0 SHL SUB DUP2 AND DUP2 EQ PUSH3 0xDB JUMPI PUSH1 0x0 DUP1 REVERT JUMPDEST SWAP2 SWAP1 POP JUMP JUMPDEST PUSH1 0x0 DUP1 PUSH1 0x40 DUP4 DUP6 SUB SLT ISZERO PUSH3 0xF4 JUMPI PUSH1 0x0 DUP1 REVERT JUMPDEST PUSH3 0xFF DUP4 PUSH3 0xC3 JUMP JUMPDEST SWAP2 POP PUSH3 0x10F PUSH1 0x20 DUP5 ADD PUSH3 0xC3 JUMP JUMPDEST SWAP1 POP SWAP3 POP SWAP3 SWAP1 POP JUMP JUMPDEST PUSH4 0x4E487B71 PUSH1 0xE0 SHL PUSH1 0x0 MSTORE PUSH1 0x11 PUSH1 0x4 MSTORE PUSH1 0x24 PUSH1 0x0 REVERT JUMPDEST PUSH1 0x0 DUP3 PUSH3 0x14C JUMPI PUSH4 0x4E487B71 PUSH1 0xE0 SHL PUSH1 0x0 MSTORE PUSH1 0x12 PUSH1 0x4 MSTORE PUSH1 0x24 PUSH1 0x0 REVERT JUMPDEST POP DIV SWAP1 JUMP JUMPDEST DUP1 DUP3 ADD DUP1 DUP3 GT ISZERO PUSH3 0x167 JUMPI PUSH3 0x167 PUSH3 0x118 JUMP JUMPDEST SWAP3 SWAP2 POP POP JUMP JUMPDEST DUP1 DUP3 MUL DUP2 ISZERO DUP3 DUP3 DIV DUP5 EQ OR PUSH3 0x167 JUMPI PUSH3 0x167 PUSH3 0x118 JUMP JUMPDEST PUSH1 0x80 MLOAD PUSH1 0xA0 MLOAD PUSH2 0x12AB PUSH3 0x1C9 PUSH1 0x0 CODECOPY PUSH1 0x0 DUP2 DUP2 PUSH2 0x300 ADD MSTORE DUP2 DUP2 PUSH2 0x96B ADD MSTORE PUSH2 0x9A7 ADD MSTORE PUSH1 0x0 DUP2 DUP2 PUSH2 0x225 ADD MSTORE DUP2 DUP2 PUSH2 0x92F ADD MSTORE PUSH2 0x9E3 ADD MSTORE PUSH2 0x12AB PUSH1 0x0 RETURN INVALID PUSH1 0x80 PUSH1 0x40 MSTORE CALLVALUE DUP1 ISZERO PUSH2 0x10 JUMPI PUSH1 0x0 DUP1 REVERT JUMPDEST POP PUSH1 0x4 CALLDATASIZE LT PUSH2 0x121 JUMPI PUSH1 0x0 CALLDATALOAD PUSH1 0xE0 SHR DUP1 PUSH4 0x72674EB6 GT PUSH2 0xAD JUMPI DUP1 PUSH4 0xB32C4D8D GT PUSH2 0x71 JUMPI DUP1 PUSH4 0xB32C4D8D EQ PUSH2 0x322 JUMPI DUP1 PUSH4 0xBD97661C EQ PUSH2 0x394 JUMPI DUP1 PUSH4 0xDF24CF7E EQ PUSH2 0x3B4 JUMPI DUP1 PUSH4 0xF2FDE38B EQ PUSH2 0x3C7 JUMPI DUP1 PUSH4 0xFA3209B2 EQ PUSH2 0x3DA JUMPI PUSH1 0x0 DUP1 REVERT JUMPDEST DUP1 PUSH4 0x72674EB6 EQ PUSH2 0x28E JUMPI DUP1 PUSH4 0x89C9C3AE EQ PUSH2 0x2CC JUMPI DUP1 PUSH4 0x8DA5CB5B EQ PUSH2 0x2DF JUMPI DUP1 PUSH4 0x9B7B7B1E EQ PUSH2 0x2F2 JUMPI DUP1 PUSH4 0xB04B050F EQ PUSH2 0x2FB JUMPI PUSH1 0x0 DUP1 REVERT JUMPDEST DUP1 PUSH4 0x4AB25C71 GT PUSH2 0xF4 JUMPI DUP1 PUSH4 0x4AB25C71 EQ PUSH2 0x20D JUMPI DUP1 PUSH4 0x4C87A631 EQ PUSH2 0x220 JUMPI DUP1 PUSH4 0x5C975ABB EQ PUSH2 0x25F JUMPI DUP1 PUSH4 0x5F45E292 EQ PUSH2 0x273 JUMPI DUP1 PUSH4 0x624D83CC EQ PUSH2 0x27B JUMPI PUSH1 0x0 DUP1 REVERT JUMPDEST DUP1 PUSH4 0xA763DA1 EQ PUSH2 0x126 JUMPI DUP1 PUSH4 0x16C38B3C EQ PUSH2 0x142 JUMPI DUP1 PUSH4 0x467C89E9 EQ PUSH2 0x157 JUMPI DUP1 PUSH4 0x46A1A095 EQ PUSH2 0x18A JUMPI JUMPDEST PUSH1 0x0 DUP1 REVERT JUMPDEST PUSH2 0x12F PUSH1 0x1 SLOAD DUP2 JUMP JUMPDEST PUSH1 0x40 MLOAD SWAP1 DUP2 MSTORE PUSH1 0x20 ADD JUMPDEST PUSH1 0x40 MLOAD DUP1 SWAP2 SUB SWAP1 RETURN JUMPDEST PUSH2 0x155 PUSH2 0x150 CALLDATASIZE PUSH1 0x4 PUSH2 0xF3E JUMP JUMPDEST PUSH2 0x3ED JUMP JUMPDEST STOP JUMPDEST PUSH2 0x17A PUSH2 0x165 CALLDATASIZE PUSH1 0x4 PUSH2 0xF77 JUMP JUMPDEST PUSH1 0x6 PUSH1 0x20 MSTORE PUSH1 0x0 SWAP1 DUP2 MSTORE PUSH1 0x40 SWAP1 KECCAK256 SLOAD PUSH1 0xFF AND DUP2 JUMP JUMPDEST PUSH1 0x40 MLOAD SWAP1 ISZERO ISZERO DUP2 MSTORE PUSH1 0x20 ADD PUSH2 0x139 JUMP JUMPDEST PUSH2 0x1F9 PUSH2 0x198 CALLDATASIZE PUSH1 0x4 PUSH2 0xF92 JUMP JUMPDEST PUSH1 0x3 PUSH1 0x20 DUP2 SWAP1 MSTORE PUSH1 0x0 SWAP2 DUP3 MSTORE PUSH1 0x40 SWAP1 SWAP2 KECCAK256 DUP1 SLOAD PUSH1 0x1 DUP3 ADD SLOAD PUSH1 0x2 DUP4 ADD SLOAD SWAP4 DUP4 ADD SLOAD PUSH1 0x4 DUP5 ADD SLOAD PUSH1 0x5 DUP6 ADD SLOAD PUSH1 0x6 DUP7 ADD SLOAD PUSH1 0x7 SWAP1 SWAP7 ADD SLOAD SWAP5 SWAP7 PUSH1 0x1 PUSH1 0x1 PUSH1 0xA0 SHL SUB SWAP5 DUP6 AND SWAP7 SWAP1 DUP6 AND SWAP6 SWAP5 SWAP1 SWAP4 AND SWAP4 PUSH1 0x1 PUSH1 0x1 PUSH1 0x80 SHL SUB SWAP1 SWAP3 AND SWAP3 SWAP1 SWAP2 PUSH1 0xFF AND DUP9 JUMP JUMPDEST PUSH1 0x40 MLOAD PUSH2 0x139 SWAP9 SWAP8 SWAP7 SWAP6 SWAP5 SWAP4 SWAP3 SWAP2 SWAP1 PUSH2 0xFC1 JUMP JUMPDEST PUSH2 0x155 PUSH2 0x21B CALLDATASIZE PUSH1 0x4 PUSH2 0x1036 JUMP JUMPDEST PUSH2 0x478 JUMP JUMPDEST PUSH2 0x247 PUSH32 0x0 DUP2 JUMP JUMPDEST PUSH1 0x40 MLOAD PUSH1 0x1 PUSH1 0x1 PUSH1 0xA0 SHL SUB SWAP1 SWAP2 AND DUP2 MSTORE PUSH1 0x20 ADD PUSH2 0x139 JUMP JUMPDEST PUSH1 0x0 SLOAD PUSH2 0x17A SWAP1 PUSH1 0x1 PUSH1 0xA0 SHL SWAP1 DIV PUSH1 0xFF AND DUP2 JUMP JUMPDEST PUSH2 0x12F PUSH1 0x5 DUP2 JUMP JUMPDEST PUSH2 0x155 PUSH2 0x289 CALLDATASIZE PUSH1 0x4 PUSH2 0x10C6 JUMP JUMPDEST PUSH2 0x76D JUMP JUMPDEST PUSH2 0x2B1 PUSH1 0x1 DUP1 SLOAD PUSH1 0x0 DUP2 DUP2 MSTORE PUSH1 0x4 PUSH1 0x20 DUP2 SWAP1 MSTORE PUSH1 0x40 SWAP1 SWAP2 KECCAK256 SWAP3 DUP4 ADD SLOAD SWAP3 ADD SLOAD SWAP1 SWAP3 JUMP JUMPDEST PUSH1 0x40 DUP1 MLOAD SWAP4 DUP5 MSTORE PUSH1 0x20 DUP5 ADD SWAP3 SWAP1 SWAP3 MSTORE SWAP1 DUP3 ADD MSTORE PUSH1 0x60 ADD PUSH2 0x139 JUMP JUMPDEST PUSH2 0x12F PUSH2 0x2DA CALLDATASIZE PUSH1 0x4 PUSH2 0x10F9 JUMP JUMPDEST PUSH2 0x7F7 JUMP JUMPDEST PUSH1 0x0 SLOAD PUSH2 0x247 SWAP1 PUSH1 0x1 PUSH1 0x1 PUSH1 0xA0 SHL SUB AND DUP2 JUMP JUMPDEST PUSH2 0x12F PUSH1 0x2 SLOAD DUP2 JUMP JUMPDEST PUSH2 0x247 PUSH32 0x0 DUP2 JUMP JUMPDEST PUSH2 0x366 PUSH2 0x330 CALLDATASIZE PUSH1 0x4 PUSH2 0xF92 JUMP JUMPDEST PUSH1 0x4 PUSH1 0x20 DUP2 SWAP1 MSTORE PUSH1 0x0 SWAP2 DUP3 MSTORE PUSH1 0x40 SWAP1 SWAP2 KECCAK256 DUP1 SLOAD PUSH1 0x1 DUP3 ADD SLOAD PUSH1 0x3 DUP4 ADD SLOAD SWAP3 SWAP1 SWAP4 ADD SLOAD SWAP1 SWAP3 SWAP2 PUSH1 0xFF DUP1 DUP3 AND SWAP3 PUSH2 0x100 SWAP1 SWAP3 DIV AND SWAP1 DUP6 JUMP JUMPDEST PUSH1 0x40 DUP1 MLOAD SWAP6 DUP7 MSTORE PUSH1 0x20 DUP7 ADD SWAP5 SWAP1 SWAP5 MSTORE SWAP2 ISZERO ISZERO SWAP3 DUP5 ADD SWAP3 SWAP1 SWAP3 MSTORE SWAP1 ISZERO ISZERO PUSH1 0x60 DUP4 ADD MSTORE PUSH1 0x80 DUP3 ADD MSTORE PUSH1 0xA0 ADD PUSH2 0x139 JUMP JUMPDEST PUSH2 0x3A7 PUSH2 0x3A2 CALLDATASIZE PUSH1 0x4 PUSH2 0xF92 JUMP JUMPDEST PUSH2 0x828 JUMP JUMPDEST PUSH1 0x40 MLOAD PUSH2 0x139 SWAP2 SWAP1 PUSH2 0x1123 JUMP JUMPDEST PUSH2 0x12F PUSH2 0x3C2 CALLDATASIZE PUSH1 0x4 PUSH2 0x1167 JUMP JUMPDEST PUSH2 0x88D JUMP JUMPDEST PUSH2 0x155 PUSH2 0x3D5 CALLDATASIZE PUSH1 0x4 PUSH2 0xF77 JUMP JUMPDEST PUSH2 0xCFE JUMP JUMPDEST PUSH2 0x3A7 PUSH2 0x3E8 CALLDATASIZE PUSH1 0x4 PUSH2 0xF77 JUMP JUMPDEST PUSH2 0xD92 JUMP JUMPDEST PUSH1 0x0 SLOAD PUSH1 0x1 PUSH1 0x1 PUSH1 0xA0 SHL SUB AND CALLER EQ PUSH2 0x420 JUMPI PUSH1 0x40 MLOAD PUSH3 0x461BCD PUSH1 0xE5 SHL DUP2 MSTORE PUSH1 0x4 ADD PUSH2 0x417 SWAP1 PUSH2 0x11BA JUMP JUMPDEST PUSH1 0x40 MLOAD DUP1 SWAP2 SUB SWAP1 REVERT JUMPDEST PUSH1 0x0 DUP1 SLOAD DUP3 ISZERO ISZERO PUSH1 0x1 PUSH1 0xA0 SHL MUL PUSH1 0xFF PUSH1 0xA0 SHL NOT SWAP1 SWAP2 AND OR SWAP1 SSTORE PUSH1 0x40 MLOAD PUSH32 0x8FB6C181EE25A520CF3DD6565006EF91229FCFE5A989566C2A3B8C115570CEC5 SWAP1 PUSH2 0x46D SWAP1 DUP4 ISZERO ISZERO DUP2 MSTORE PUSH1 0x20 ADD SWAP1 JUMP JUMPDEST PUSH1 0x40 MLOAD DUP1 SWAP2 SUB SWAP1 LOG1 POP JUMP JUMPDEST CALLER PUSH1 0x0 SWAP1 DUP2 MSTORE PUSH1 0x6 PUSH1 0x20 MSTORE PUSH1 0x40 SWAP1 KECCAK256 SLOAD PUSH1 0xFF AND PUSH2 0x4CC JUMPI PUSH1 0x40 MLOAD PUSH3 0x461BCD PUSH1 0xE5 SHL DUP2 MSTORE PUSH1 0x20 PUSH1 0x4 DUP3 ADD MSTORE PUSH1 0x12 PUSH1 0x24 DUP3 ADD MSTORE PUSH18 0x4E6F7420617574686F72697A656420415653 PUSH1 0x70 SHL PUSH1 0x44 DUP3 ADD MSTORE PUSH1 0x64 ADD PUSH2 0x417 JUMP JUMPDEST PUSH1 0x7 SLOAD PUSH1 0x1 EQ PUSH2 0x514 JUMPI PUSH1 0x40 MLOAD PUSH3 0x461BCD PUSH1 0xE5 SHL DUP2 MSTORE PUSH1 0x20 PUSH1 0x4 DUP3 ADD MSTORE PUSH1 0x13 PUSH1 0x24 DUP3 ADD MSTORE PUSH19 0x1499595B9D1C985B98DE4819195D1958DD1959 PUSH1 0x6A SHL PUSH1 0x44 DUP3 ADD MSTORE PUSH1 0x64 ADD PUSH2 0x417 JUMP JUMPDEST PUSH1 0x2 PUSH1 0x7 SSTORE PUSH1 0x0 DUP6 DUP2 MSTORE PUSH1 0x4 PUSH1 0x20 MSTORE PUSH1 0x40 SWAP1 KECCAK256 PUSH1 0x3 DUP2 ADD SLOAD PUSH1 0xFF AND PUSH2 0x56E JUMPI PUSH1 0x40 MLOAD PUSH3 0x461BCD PUSH1 0xE5 SHL DUP2 MSTORE PUSH1 0x20 PUSH1 0x4 DUP3 ADD MSTORE PUSH1 0x10 PUSH1 0x24 DUP3 ADD MSTORE PUSH16 0x10985D18DA081B9BDD081CD9585B1959 PUSH1 0x82 SHL PUSH1 0x44 DUP3 ADD MSTORE PUSH1 0x64 ADD PUSH2 0x417 JUMP JUMPDEST PUSH1 0x3 DUP2 ADD SLOAD PUSH2 0x100 SWAP1 DIV PUSH1 0xFF AND ISZERO PUSH2 0x5C8 JUMPI PUSH1 0x40 MLOAD PUSH3 0x461BCD PUSH1 0xE5 SHL DUP2 MSTORE PUSH1 0x20 PUSH1 0x4 DUP3 ADD MSTORE PUSH1 0x17 PUSH1 0x24 DUP3 ADD MSTORE PUSH32 0x426174636820616C72656164792070726F636573736564000000000000000000 PUSH1 0x44 DUP3 ADD MSTORE PUSH1 0x64 ADD PUSH2 0x417 JUMP JUMPDEST PUSH1 0x3 DUP2 ADD DUP1 SLOAD PUSH2 0xFF00 NOT AND PUSH2 0x100 OR SWAP1 SSTORE PUSH1 0x0 JUMPDEST DUP3 DUP2 LT ISZERO PUSH2 0x71C JUMPI PUSH1 0x0 DUP5 DUP5 DUP4 DUP2 DUP2 LT PUSH2 0x5F8 JUMPI PUSH2 0x5F8 PUSH2 0x11DE JUMP JUMPDEST SWAP1 POP PUSH1 0x20 MUL ADD CALLDATALOAD SWAP1 POP PUSH1 0x0 PUSH1 0x3 PUSH1 0x0 DUP4 DUP2 MSTORE PUSH1 0x20 ADD SWAP1 DUP2 MSTORE PUSH1 0x20 ADD PUSH1 0x0 KECCAK256 SWAP1 POP DUP9 DUP2 PUSH1 0x5 ADD SLOAD EQ PUSH2 0x66B JUMPI PUSH1 0x40 MLOAD PUSH3 0x461BCD PUSH1 0xE5 SHL DUP2 MSTORE PUSH1 0x20 PUSH1 0x4 DUP3 ADD MSTORE PUSH1 0x18 PUSH1 0x24 DUP3 ADD MSTORE PUSH32 0x496E74656E74206E6F7420696E20746869732062617463680000000000000000 PUSH1 0x44 DUP3 ADD MSTORE PUSH1 0x64 ADD PUSH2 0x417 JUMP JUMPDEST PUSH1 0x1 PUSH1 0x7 DUP3 ADD SLOAD PUSH1 0xFF AND PUSH1 0x4 DUP2 GT ISZERO PUSH2 0x686 JUMPI PUSH2 0x686 PUSH2 0xFAB JUMP JUMPDEST EQ PUSH2 0x6C7 JUMPI PUSH1 0x40 MLOAD PUSH3 0x461BCD PUSH1 0xE5 SHL DUP2 MSTORE PUSH1 0x20 PUSH1 0x4 DUP3 ADD MSTORE PUSH1 0x11 PUSH1 0x24 DUP3 ADD MSTORE PUSH17 0x125B9D195B9D081B9BDD081CD9585B1959 PUSH1 0x7A SHL PUSH1 0x44 DUP3 ADD MSTORE PUSH1 0x64 ADD PUSH2 0x417 JUMP JUMPDEST PUSH1 0x7 DUP2 ADD DUP1 SLOAD PUSH1 0xFF NOT AND PUSH1 0x2 OR SWAP1 SSTORE PUSH1 0x1 DUP2 ADD SLOAD PUSH1 0x40 MLOAD PUSH1 0x1 PUSH1 0x1 PUSH1 0xA0 SHL SUB SWAP1 SWAP2 AND SWAP1 DUP4 SWAP1 PUSH32 0x6852407858602D696344801F0181BC507C808C727C914BB6CDFEABD42431AF38 SWAP1 PUSH1 0x0 SWAP1 LOG3 POP POP PUSH1 0x1 ADD PUSH2 0x5DC JUMP JUMPDEST POP PUSH1 0x40 DUP1 MLOAD DUP7 DUP2 MSTORE PUSH1 0x20 DUP2 ADD DUP7 SWAP1 MSTORE SWAP1 DUP2 ADD DUP4 SWAP1 MSTORE DUP7 SWAP1 PUSH32 0x59D088174AEE33F5FF817F6507A076513B43D5B623C805AACA6D79677742F6E7 SWAP1 PUSH1 0x60 ADD PUSH1 0x40 MLOAD DUP1 SWAP2 SUB SWAP1 LOG2 POP POP PUSH1 0x1 PUSH1 0x7 SSTORE POP POP POP POP JUMP JUMPDEST PUSH1 0x0 SLOAD PUSH1 0x1 PUSH1 0x1 PUSH1 0xA0 SHL SUB AND CALLER EQ PUSH2 0x797 JUMPI PUSH1 0x40 MLOAD PUSH3 0x461BCD PUSH1 0xE5 SHL DUP2 MSTORE PUSH1 0x4 ADD PUSH2 0x417 SWAP1 PUSH2 0x11BA JUMP JUMPDEST PUSH1 0x1 PUSH1 0x1 PUSH1 0xA0 SHL SUB DUP3 AND PUSH1 0x0 DUP2 DUP2 MSTORE PUSH1 0x6 PUSH1 0x20 SWAP1 DUP2 MSTORE PUSH1 0x40 SWAP2 DUP3 SWAP1 KECCAK256 DUP1 SLOAD PUSH1 0xFF NOT AND DUP6 ISZERO ISZERO SWAP1 DUP2 OR SWAP1 SWAP2 SSTORE SWAP2 MLOAD SWAP2 DUP3 MSTORE PUSH32 0xAC940349638BD695C8726A646919340E350E03D1FDB7499B54430A2889817D76 SWAP2 ADD JUMPDEST PUSH1 0x40 MLOAD DUP1 SWAP2 SUB SWAP1 LOG2 POP POP JUMP JUMPDEST PUSH1 0x5 PUSH1 0x20 MSTORE DUP2 PUSH1 0x0 MSTORE PUSH1 0x40 PUSH1 0x0 KECCAK256 DUP2 DUP2 SLOAD DUP2 LT PUSH2 0x813 JUMPI PUSH1 0x0 DUP1 REVERT JUMPDEST SWAP1 PUSH1 0x0 MSTORE PUSH1 0x20 PUSH1 0x0 KECCAK256 ADD PUSH1 0x0 SWAP2 POP SWAP2 POP POP SLOAD DUP2 JUMP JUMPDEST PUSH1 0x0 DUP2 DUP2 MSTORE PUSH1 0x4 PUSH1 0x20 SWAP1 DUP2 MSTORE PUSH1 0x40 SWAP2 DUP3 SWAP1 KECCAK256 PUSH1 0x2 ADD DUP1 SLOAD DUP4 MLOAD DUP2 DUP5 MUL DUP2 ADD DUP5 ADD SWAP1 SWAP5 MSTORE DUP1 DUP5 MSTORE PUSH1 0x60 SWAP4 SWAP3 DUP4 ADD DUP3 DUP3 DUP1 ISZERO PUSH2 0x881 JUMPI PUSH1 0x20 MUL DUP3 ADD SWAP2 SWAP1 PUSH1 0x0 MSTORE PUSH1 0x20 PUSH1 0x0 KECCAK256 SWAP1 JUMPDEST DUP2 SLOAD DUP2 MSTORE PUSH1 0x20 ADD SWAP1 PUSH1 0x1 ADD SWAP1 DUP1 DUP4 GT PUSH2 0x86D JUMPI JUMPDEST POP POP POP POP POP SWAP1 POP SWAP2 SWAP1 POP JUMP JUMPDEST PUSH1 0x0 DUP1 SLOAD PUSH1 0x1 PUSH1 0xA0 SHL SWAP1 DIV PUSH1 0xFF AND ISZERO PUSH2 0x8DD JUMPI PUSH1 0x40 MLOAD PUSH3 0x461BCD PUSH1 0xE5 SHL DUP2 MSTORE PUSH1 0x20 PUSH1 0x4 DUP3 ADD MSTORE PUSH1 0x12 PUSH1 0x24 DUP3 ADD MSTORE PUSH18 0x10DBDB9D1C9858DD081A5CC81C185D5CD959 PUSH1 0x72 SHL PUSH1 0x44 DUP3 ADD MSTORE PUSH1 0x64 ADD PUSH2 0x417 JUMP JUMPDEST PUSH1 0x7 SLOAD PUSH1 0x1 EQ PUSH2 0x925 JUMPI PUSH1 0x40 MLOAD PUSH3 0x461BCD PUSH1 0xE5 SHL DUP2 MSTORE PUSH1 0x20 PUSH1 0x4 DUP3 ADD MSTORE PUSH1 0x13 PUSH1 0x24 DUP3 ADD MSTORE PUSH19 0x1499595B9D1C985B98DE4819195D1958DD1959 PUSH1 0x6A SHL PUSH1 0x44 DUP3 ADD MSTORE PUSH1 0x64 ADD PUSH2 0x417 JUMP JUMPDEST PUSH1 0x2 PUSH1 0x7 DUP2 SWAP1 SSTORE POP PUSH32 0x0 PUSH1 0x1 PUSH1 0x1 PUSH1 0xA0 SHL SUB AND DUP5 PUSH1 0x1 PUSH1 0x1 PUSH1 0xA0 SHL SUB AND EQ DUP1 ISZERO PUSH2 0x99F JUMPI POP PUSH32 0x0 PUSH1 0x1 PUSH1 0x1 PUSH1 0xA0 SHL SUB AND DUP4 PUSH1 0x1 PUSH1 0x1 PUSH1 0xA0 SHL SUB AND EQ JUMPDEST DUP1 PUSH2 0xA17 JUMPI POP PUSH32 0x0 PUSH1 0x1 PUSH1 0x1 PUSH1 0xA0 SHL SUB AND DUP5 PUSH1 0x1 PUSH1 0x1 PUSH1 0xA0 SHL SUB AND EQ DUP1 ISZERO PUSH2 0xA17 JUMPI POP PUSH32 0x0 PUSH1 0x1 PUSH1 0x1 PUSH1 0xA0 SHL SUB AND DUP4 PUSH1 0x1 PUSH1 0x1 PUSH1 0xA0 SHL SUB AND EQ JUMPDEST PUSH2 0xA58 JUMPI PUSH1 0x40 MLOAD PUSH3 0x461BCD PUSH1 0xE5 SHL DUP2 MSTORE PUSH1 0x20 PUSH1 0x4 DUP3 ADD MSTORE PUSH1 0x12 PUSH1 0x24 DUP3 ADD MSTORE PUSH18 0x24B73B30B634B2103A37B5B2B7103830B4B9 PUSH1 0x71 SHL PUSH1 0x44 DUP3 ADD MSTORE PUSH1 0x64 ADD PUSH2 0x417 JUMP JUMPDEST PUSH1 0x0 PUSH1 0x5 PUSH2 0xA66 DUP2 NUMBER PUSH2 0x120A JUMP JUMPDEST PUSH2 0xA71 SWAP1 PUSH1 0x1 PUSH2 0x122C JUMP JUMPDEST PUSH2 0xA7B SWAP2 SWAP1 PUSH2 0x1245 JUMP JUMPDEST PUSH1 0x1 DUP1 SLOAD PUSH1 0x0 SWAP1 DUP2 MSTORE PUSH1 0x4 PUSH1 0x20 MSTORE PUSH1 0x40 SWAP1 KECCAK256 ADD SLOAD SWAP1 SWAP2 POP NUMBER LT PUSH2 0xAD2 JUMPI PUSH2 0xAA3 PUSH1 0x1 SLOAD PUSH2 0xDFC JUMP JUMPDEST PUSH1 0x1 DUP1 SLOAD SWAP1 PUSH1 0x0 PUSH2 0xAB3 DUP4 PUSH2 0x125C JUMP JUMPDEST SWAP1 SWAP2 SSTORE POP POP PUSH1 0x1 DUP1 SLOAD PUSH1 0x0 DUP2 DUP2 MSTORE PUSH1 0x4 PUSH1 0x20 MSTORE PUSH1 0x40 SWAP1 KECCAK256 SWAP1 DUP2 SSTORE ADD DUP2 SWAP1 SSTORE JUMPDEST PUSH1 0x2 DUP1 SLOAD SWAP1 PUSH1 0x0 PUSH2 0xAE2 DUP4 PUSH2 0x125C JUMP JUMPDEST SWAP2 SWAP1 POP SSTORE SWAP2 POP PUSH1 0x40 MLOAD DUP1 PUSH2 0x100 ADD PUSH1 0x40 MSTORE DUP1 DUP4 DUP2 MSTORE PUSH1 0x20 ADD CALLER PUSH1 0x1 PUSH1 0x1 PUSH1 0xA0 SHL SUB AND DUP2 MSTORE PUSH1 0x20 ADD DUP7 PUSH1 0x1 PUSH1 0x1 PUSH1 0xA0 SHL SUB AND DUP2 MSTORE PUSH1 0x20 ADD DUP6 PUSH1 0x1 PUSH1 0x1 PUSH1 0xA0 SHL SUB AND DUP2 MSTORE PUSH1 0x20 ADD DUP5 PUSH1 0x1 PUSH1 0x1 PUSH1 0x80 SHL SUB AND DUP2 MSTORE PUSH1 0x20 ADD PUSH1 0x1 SLOAD DUP2 MSTORE PUSH1 0x20 ADD TIMESTAMP DUP2 MSTORE PUSH1 0x20 ADD PUSH1 0x0 PUSH1 0x4 DUP2 GT ISZERO PUSH2 0xB57 JUMPI PUSH2 0xB57 PUSH2 0xFAB JUMP JUMPDEST SWAP1 MSTORE PUSH1 0x0 DUP4 DUP2 MSTORE PUSH1 0x3 PUSH1 0x20 DUP2 DUP2 MSTORE PUSH1 0x40 SWAP3 DUP4 SWAP1 KECCAK256 DUP5 MLOAD DUP2 SSTORE SWAP1 DUP5 ADD MLOAD PUSH1 0x1 DUP1 DUP4 ADD DUP1 SLOAD PUSH1 0x1 PUSH1 0x1 PUSH1 0xA0 SHL SUB NOT SWAP1 DUP2 AND PUSH1 0x1 PUSH1 0x1 PUSH1 0xA0 SHL SUB SWAP5 DUP6 AND OR SWAP1 SWAP2 SSTORE SWAP5 DUP7 ADD MLOAD PUSH1 0x2 DUP5 ADD DUP1 SLOAD DUP8 AND SWAP2 DUP5 AND SWAP2 SWAP1 SWAP2 OR SWAP1 SSTORE PUSH1 0x60 DUP7 ADD MLOAD SWAP4 DUP4 ADD DUP1 SLOAD SWAP1 SWAP6 AND SWAP4 SWAP1 SWAP2 AND SWAP3 SWAP1 SWAP3 OR SWAP1 SWAP3 SSTORE PUSH1 0x80 DUP4 ADD MLOAD PUSH1 0x4 DUP1 DUP5 ADD DUP1 SLOAD PUSH16 0xFFFFFFFFFFFFFFFFFFFFFFFFFFFFFFFF NOT AND PUSH1 0x1 PUSH1 0x1 PUSH1 0x80 SHL SUB SWAP1 SWAP4 AND SWAP3 SWAP1 SWAP3 OR SWAP1 SWAP2 SSTORE PUSH1 0xA0 DUP5 ADD MLOAD PUSH1 0x5 DUP5 ADD SSTORE PUSH1 0xC0 DUP5 ADD MLOAD PUSH1 0x6 DUP5 ADD SSTORE PUSH1 0xE0 DUP5 ADD MLOAD PUSH1 0x7 DUP5 ADD DUP1 SLOAD SWAP2 SWAP4 SWAP1 SWAP3 PUSH1 0xFF NOT SWAP1 SWAP3 AND SWAP2 DUP5 SWAP1 DUP2 GT ISZERO PUSH2 0xC2E JUMPI PUSH2 0xC2E PUSH2 0xFAB JUMP JUMPDEST MUL OR SWAP1 SSTORE POP POP PUSH1 0x1 DUP1 SLOAD PUSH1 0x0 SWAP1 DUP2 MSTORE PUSH1 0x4 PUSH1 0x20 DUP2 DUP2 MSTORE PUSH1 0x40 DUP1 DUP5 KECCAK256 PUSH1 0x2 ADD DUP1 SLOAD DUP1 DUP8 ADD DUP3 SSTORE SWAP1 DUP6 MSTORE SWAP2 DUP5 KECCAK256 SWAP1 SWAP2 ADD DUP8 SWAP1 SSTORE SWAP3 SLOAD DUP3 MSTORE SWAP2 DUP2 KECCAK256 SWAP1 SWAP2 ADD DUP1 SLOAD SWAP3 POP SWAP1 PUSH2 0xC77 DUP4 PUSH2 0x125C JUMP JUMPDEST SWAP1 SWAP2 SSTORE POP POP CALLER PUSH1 0x0 DUP2 DUP2 MSTORE PUSH1 0x5 PUSH1 0x20 SWAP1 DUP2 MSTORE PUSH1 0x40 DUP1 DUP4 KECCAK256 DUP1 SLOAD PUSH1 0x1 DUP1 DUP3 ADD DUP4 SSTORE SWAP2 DUP6 MSTORE SWAP4 DUP4 SWAP1 KECCAK256 SWAP1 SWAP4 ADD DUP7 SWAP1 SSTORE SWAP2 SLOAD DUP3 MLOAD PUSH1 0x1 PUSH1 0x1 PUSH1 0xA0 SHL SUB DUP11 DUP2 AND DUP3 MSTORE DUP10 AND SWAP3 DUP2 ADD SWAP3 SWAP1 SWAP3 MSTORE DUP2 DUP4 ADD MSTORE SWAP1 MLOAD DUP5 SWAP2 PUSH32 0xE70703AC29278FC0840293572932F539F37B9348CEABE01D6E1881A0E32CCED0 SWAP2 SWAP1 DUP2 SWAP1 SUB PUSH1 0x60 ADD SWAP1 LOG3 POP PUSH1 0x1 PUSH1 0x7 SSTORE SWAP4 SWAP3 POP POP POP JUMP JUMPDEST PUSH1 0x0 SLOAD PUSH1 0x1 PUSH1 0x1 PUSH1 0xA0 SHL SUB AND CALLER EQ PUSH2 0xD28 JUMPI PUSH1 0x40 MLOAD PUSH3 0x461BCD PUSH1 0xE5 SHL DUP2 MSTORE PUSH1 0x4 ADD PUSH2 0x417 SWAP1 PUSH2 0x11BA JUMP JUMPDEST PUSH1 0x1 PUSH1 0x1 PUSH1 0xA0 SHL SUB DUP2 AND PUSH2 0xD70 JUMPI PUSH1 0x40 MLOAD PUSH3 0x461BCD PUSH1 0xE5 SHL DUP2 MSTORE PUSH1 0x20 PUSH1 0x4 DUP3 ADD MSTORE PUSH1 0xF PUSH1 0x24 DUP3 ADD MSTORE PUSH15 0x496E76616C69642061646472657373 PUSH1 0x88 SHL PUSH1 0x44 DUP3 ADD MSTORE PUSH1 0x64 ADD PUSH2 0x417 JUMP JUMPDEST PUSH1 0x0 DUP1 SLOAD PUSH1 0x1 PUSH1 0x1 PUSH1 0xA0 SHL SUB NOT AND PUSH1 0x1 PUSH1 0x1 PUSH1 0xA0 SHL SUB SWAP3 SWAP1 SWAP3 AND SWAP2 SWAP1 SWAP2 OR SWAP1 SSTORE JUMP JUMPDEST PUSH1 0x1 PUSH1 0x1 PUSH1 0xA0 SHL SUB DUP2 AND PUSH1 0x0 SWAP1 DUP2 MSTORE PUSH1 0x5 PUSH1 0x20 SWAP1 DUP2 MSTORE PUSH1 0x40 SWAP2 DUP3 SWAP1 KECCAK256 DUP1 SLOAD DUP4 MLOAD DUP2 DUP5 MUL DUP2 ADD DUP5 ADD SWAP1 SWAP5 MSTORE DUP1 DUP5 MSTORE PUSH1 0x60 SWAP4 SWAP3 DUP4 ADD DUP3 DUP3 DUP1 ISZERO PUSH2 0x881 JUMPI PUSH1 0x20 MUL DUP3 ADD SWAP2 SWAP1 PUSH1 0x0 MSTORE PUSH1 0x20 PUSH1 0x0 KECCAK256 SWAP1 DUP2 SLOAD DUP2 MSTORE PUSH1 0x20 ADD SWAP1 PUSH1 0x1 ADD SWAP1 DUP1 DUP4 GT PUSH2 0x86D JUMPI POP POP POP POP POP SWAP1 POP SWAP2 SWAP1 POP JUMP JUMPDEST PUSH1 0x0 DUP2 DUP2 MSTORE PUSH1 0x4 PUSH1 0x20 MSTORE PUSH1 0x40 SWAP1 KECCAK256 PUSH1 0x3 DUP2 ADD SLOAD PUSH1 0xFF AND ISZERO PUSH2 0xE56 JUMPI PUSH1 0x40 MLOAD PUSH3 0x461BCD PUSH1 0xE5 SHL DUP2 MSTORE PUSH1 0x20 PUSH1 0x4 DUP3 ADD MSTORE PUSH1 0x14 PUSH1 0x24 DUP3 ADD MSTORE PUSH20 0x10985D18DA08185B1C9958591E481CD9585B1959 PUSH1 0x62 SHL PUSH1 0x44 DUP3 ADD MSTORE PUSH1 0x64 ADD PUSH2 0x417 JUMP JUMPDEST PUSH1 0x3 DUP2 ADD DUP1 SLOAD PUSH1 0xFF NOT AND PUSH1 0x1 OR SWAP1 SSTORE PUSH1 0x0 JUMPDEST PUSH1 0x2 DUP3 ADD SLOAD DUP2 LT ISZERO PUSH2 0xEE9 JUMPI PUSH1 0x0 DUP3 PUSH1 0x2 ADD DUP3 DUP2 SLOAD DUP2 LT PUSH2 0xE8B JUMPI PUSH2 0xE8B PUSH2 0x11DE JUMP JUMPDEST PUSH1 0x0 SWAP2 DUP3 MSTORE PUSH1 0x20 DUP3 KECCAK256 ADD SLOAD SWAP2 POP PUSH1 0x0 DUP3 DUP2 MSTORE PUSH1 0x3 PUSH1 0x20 MSTORE PUSH1 0x40 SWAP1 KECCAK256 PUSH1 0x7 ADD SLOAD PUSH1 0xFF AND PUSH1 0x4 DUP2 GT ISZERO PUSH2 0xEBE JUMPI PUSH2 0xEBE PUSH2 0xFAB JUMP JUMPDEST SUB PUSH2 0xEE0 JUMPI PUSH1 0x0 DUP2 DUP2 MSTORE PUSH1 0x3 PUSH1 0x20 MSTORE PUSH1 0x40 SWAP1 KECCAK256 PUSH1 0x7 ADD DUP1 SLOAD PUSH1 0xFF NOT AND PUSH1 0x1 OR SWAP1 SSTORE JUMPDEST POP PUSH1 0x1 ADD PUSH2 0xE68 JUMP JUMPDEST POP DUP2 PUSH32 0xBB1DA96A0AAC1A1CFA17DF5C7EB23D7078C7C2D3570BBA1FBEDBFB24291C6759 NUMBER DUP4 PUSH1 0x4 ADD SLOAD PUSH1 0x40 MLOAD PUSH2 0x7EB SWAP3 SWAP2 SWAP1 SWAP2 DUP3 MSTORE PUSH1 0x20 DUP3 ADD MSTORE PUSH1 0x40 ADD SWAP1 JUMP JUMPDEST DUP1 CALLDATALOAD DUP1 ISZERO ISZERO DUP2 EQ PUSH2 0xF39 JUMPI PUSH1 0x0 DUP1 REVERT JUMPDEST SWAP2 SWAP1 POP JUMP JUMPDEST PUSH1 0x0 PUSH1 0x20 DUP3 DUP5 SUB SLT ISZERO PUSH2 0xF50 JUMPI PUSH1 0x0 DUP1 REVERT JUMPDEST PUSH2 0xF59 DUP3 PUSH2 0xF29 JUMP JUMPDEST SWAP4 SWAP3 POP POP POP JUMP JUMPDEST DUP1 CALLDATALOAD PUSH1 0x1 PUSH1 0x1 PUSH1 0xA0 SHL SUB DUP2 AND DUP2 EQ PUSH2 0xF39 JUMPI PUSH1 0x0 DUP1 REVERT JUMPDEST PUSH1 0x0 PUSH1 0x20 DUP3 DUP5 SUB SLT ISZERO PUSH2 0xF89 JUMPI PUSH1 0x0 DUP1 REVERT JUMPDEST PUSH2 0xF59 DUP3 PUSH2 0xF60 JUMP JUMPDEST PUSH1 0x0 PUSH1 0x20 DUP3 DUP5 SUB SLT ISZERO PUSH2 0xFA4 JUMPI PUSH1 0x0 DUP1 REVERT JUMPDEST POP CALLDATALOAD SWAP2 SWAP1 POP JUMP JUMPDEST PUSH4 0x4E487B71 PUSH1 0xE0 SHL PUSH1 0x0 MSTORE PUSH1 0x21 PUSH1 0x4 MSTORE PUSH1 0x24 PUSH1 0x0 REVERT JUMPDEST DUP9 DUP2 MSTORE PUSH1 0x1 PUSH1 0x1 PUSH1 0xA0 SHL SUB DUP9 DUP2 AND PUSH1 0x20 DUP4 ADD MSTORE DUP8 DUP2 AND PUSH1 0x40 DUP4 ADD MSTORE DUP7 AND PUSH1 0x60 DUP3 ADD MSTORE PUSH1 0x1 PUSH1 0x1 PUSH1 0x80 SHL SUB DUP6 AND PUSH1 0x80 DUP3 ADD MSTORE PUSH1 0xA0 DUP2 ADD DUP5 SWAP1 MSTORE PUSH1 0xC0 DUP2 ADD DUP4 SWAP1 MSTORE PUSH2 0x100 DUP2 ADD PUSH1 0x5 DUP4 LT PUSH2 0x1023 JUMPI PUSH4 0x4E487B71 PUSH1 0xE0 SHL PUSH1 0x0 MSTORE PUSH1 0x21 PUSH1 0x4 MSTORE PUSH1 0x24 PUSH1 0x0 REVERT JUMPDEST DUP3 PUSH1 0xE0 DUP4 ADD MSTORE SWAP10 SWAP9 POP POP POP POP POP POP POP POP POP JUMP JUMPDEST PUSH1 0x0 DUP1 PUSH1 0x0 DUP1 PUSH1 0x0 PUSH1 0x80 DUP7 DUP9 SUB SLT ISZERO PUSH2 0x104E JUMPI PUSH1 0x0 DUP1 REVERT JUMPDEST DUP6 CALLDATALOAD SWAP5 POP PUSH1 0x20 DUP7 ADD CALLDATALOAD SWAP4 POP PUSH1 0x40 DUP7 ADD CALLDATALOAD SWAP3 POP PUSH1 0x60 DUP7 ADD CALLDATALOAD PUSH8 0xFFFFFFFFFFFFFFFF DUP1 DUP3 GT ISZERO PUSH2 0x107B JUMPI PUSH1 0x0 DUP1 REVERT JUMPDEST DUP2 DUP9 ADD SWAP2 POP DUP9 PUSH1 0x1F DUP4 ADD SLT PUSH2 0x108F JUMPI PUSH1 0x0 DUP1 REVERT JUMPDEST DUP2 CALLDATALOAD DUP2 DUP2 GT ISZERO PUSH2 0x109E JUMPI PUSH1 0x0 DUP1 REVERT JUMPDEST DUP10 PUSH1 0x20 DUP3 PUSH1 0x5 SHL DUP6 ADD ADD GT ISZERO PUSH2 0x10B3 JUMPI PUSH1 0x0 DUP1 REVERT JUMPDEST SWAP7 SWAP10 SWAP6 SWAP9 POP SWAP4 SWAP7 POP PUSH1 0x20 ADD SWAP5 SWAP4 SWAP3 POP POP POP JUMP JUMPDEST PUSH1 0x0 DUP1 PUSH1 0x40 DUP4 DUP6 SUB SLT ISZERO PUSH2 0x10D9 JUMPI PUSH1 0x0 DUP1 REVERT JUMPDEST PUSH2 0x10E2 DUP4 PUSH2 0xF60 JUMP JUMPDEST SWAP2 POP PUSH2 0x10F0 PUSH1 0x20 DUP5 ADD PUSH2 0xF29 JUMP JUMPDEST SWAP1 POP SWAP3 POP SWAP3 SWAP1 POP JUMP JUMPDEST PUSH1 0x0 DUP1 PUSH1 0x40 DUP4 DUP6 SUB SLT ISZERO PUSH2 0x110C JUMPI PUSH1 0x0 DUP1 REVERT JUMPDEST PUSH2 0x1115 DUP4 PUSH2 0xF60 JUMP JUMPDEST SWAP5 PUSH1 0x20 SWAP4 SWAP1 SWAP4 ADD CALLDATALOAD SWAP4 POP POP POP JUMP JUMPDEST PUSH1 0x20 DUP1 DUP3 MSTORE DUP3 MLOAD DUP3 DUP3 ADD DUP2 SWAP1 MSTORE PUSH1 0x0 SWAP2 SWAP1 DUP5 DUP3 ADD SWAP1 PUSH1 0x40 DUP6 ADD SWAP1 DUP5 JUMPDEST DUP2 DUP2 LT ISZERO PUSH2 0x115B JUMPI DUP4 MLOAD DUP4 MSTORE SWAP3 DUP5 ADD SWAP3 SWAP2 DUP5 ADD SWAP2 PUSH1 0x1 ADD PUSH2 0x113F JUMP JUMPDEST POP SWAP1 SWAP7 SWAP6 POP POP POP POP POP POP JUMP JUMPDEST PUSH1 0x0 DUP1 PUSH1 0x0 PUSH1 0x60 DUP5 DUP7 SUB SLT ISZERO PUSH2 0x117C JUMPI PUSH1 0x0 DUP1 REVERT JUMPDEST PUSH2 0x1185 DUP5 PUSH2 0xF60 JUMP JUMPDEST SWAP3 POP PUSH2 0x1193 PUSH1 0x20 DUP6 ADD PUSH2 0xF60 JUMP JUMPDEST SWAP2 POP PUSH1 0x40 DUP5 ADD CALLDATALOAD PUSH1 0x1 PUSH1 0x1 PUSH1 0x80 SHL SUB DUP2 AND DUP2 EQ PUSH2 0x11AF JUMPI PUSH1 0x0 DUP1 REVERT JUMPDEST DUP1 SWAP2 POP POP SWAP3 POP SWAP3 POP SWAP3 JUMP JUMPDEST PUSH1 0x20 DUP1 DUP3 MSTORE PUSH1 0xA SWAP1 DUP3 ADD MSTORE PUSH10 0x27B7363C9037BBB732B9 PUSH1 0xB1 SHL PUSH1 0x40 DUP3 ADD MSTORE PUSH1 0x60 ADD SWAP1 JUMP JUMPDEST PUSH4 0x4E487B71 PUSH1 0xE0 SHL PUSH1 0x0 MSTORE PUSH1 0x32 PUSH1 0x4 MSTORE PUSH1 0x24 PUSH1 0x0 REVERT JUMPDEST PUSH4 0x4E487B71 PUSH1 0xE0 SHL PUSH1 0x0 MSTORE PUSH1 0x11 PUSH1 0x4 MSTORE PUSH1 0x24 PUSH1 0x0 REVERT JUMPDEST PUSH1 0x0 DUP3 PUSH2 0x1227 JUMPI PUSH4 0x4E487B71 PUSH1 0xE0 SHL PUSH1 0x0 MSTORE PUSH1 0x12 PUSH1 0x4 MSTORE PUSH1 0x24 PUSH1 0x0 REVERT JUMPDEST POP DIV SWAP1 JUMP JUMPDEST DUP1 DUP3 ADD DUP1 DUP3 GT ISZERO PUSH2 0x123F JUMPI PUSH2 0x123F PUSH2 0x11F4 JUMP JUMPDEST SWAP3 SWAP2 POP POP JUMP JUMPDEST DUP1 DUP3 MUL DUP2 ISZERO DUP3 DUP3 DIV DUP5 EQ OR PUSH2 0x123F JUMPI PUSH2 0x123F PUSH2 0x11F4 JUMP JUMPDEST PUSH1 0x0 PUSH1 0x1 DUP3 ADD PUSH2 0x126E JUMPI PUSH2 0x126E PUSH2 0x11F4 JUMP JUMPDEST POP PUSH1 0x1 ADD SWAP1 JUMP INVALID LOG2 PUSH5 0x6970667358 0x22 SLT KECCAK256 PUSH2 0xFDA2 DUP13 0x4F 0x28 EXTCODEHASH 0xB5 PUSH30 0xA76642C143AEF86195DB0CB6278A62483B96184FF5B80964736F6C634300 ADDMOD XOR STOP CALLER "},"methodIdentifiers":{"BATCH_WINDOW()":"5f45e292","authorizedAVS(address)":"467c89e9","batches(uint256)":"b32c4d8d","currentBatchId()":"0a763da1","encryptedUSDC()":"4c87a631","encryptedUSDT()":"b04b050f","getBatchIntents(uint256)":"bd97661c","getCurrentBatchInfo()":"72674eb6","getUserIntents(address)":"fa3209b2","intents(uint256)":"46a1a095","nextIntentId()":"9b7b7b1e","owner()":"8da5cb5b","paused()":"5c975abb","setAVSAuthorization(address,bool)":"624d83cc","setPaused(bool)":"16c38b3c","settleBatch(uint256,uint256,uint256,uint256[])":"4ab25c71","submitIntent(address,address,uint128)":"df24cf7e","transferOwnership(address)":"f2fde38b","userIntents(address,uint256)":"89c9c3ae"}}}}}