{
  "_format": "hh-sol-artifact-1",
  "contractName": "EncryptedBTC",
  "sourceName": "contracts/tokens/EncryptedBTC.sol",
  "abi": [
    {
      "inputs": [
        {
          "internalType": "address",
          "name": "_backingToken",
          "type": "address"
        },
        {
          "internalType": "address",
          "name": "_zswapPool",
          "type": "address"
        }
      ],
      "stateMutability": "nonpayable",
      "type": "constructor"
    },
    {
      "anonymous": false,
      "inputs": [
        {
          "indexed": true,
          "internalType": "address",
          "name": "user",
          "type": "address"
        },
        {
          "indexed": false,
          "internalType": "uint256",
          "name": "amount",
          "type": "uint256"
        }
      ],
      "name": "Deposit",
      "type": "event"
    },
    {
      "anonymous": false,
      "inputs": [
        {
          "indexed": true,
          "internalType": "address",
          "name": "from",
          "type": "address"
        },
        {
          "indexed": true,
          "internalType": "address",
          "name": "to",
          "type": "address"
        }
      ],
      "name": "EncryptedTransfer",
      "type": "event"
    },
    {
      "anonymous": false,
      "inputs": [
        {
          "indexed": true,
          "internalType": "address",
          "name": "user",
          "type": "address"
        },
        {
          "indexed": false,
          "internalType": "uint256",
          "name": "amount",
          "type": "uint256"
        }
      ],
      "name": "Withdraw",
      "type": "event"
    },
    {
      "inputs": [],
      "name": "backingToken",
      "outputs": [
        {
          "internalType": "address",
          "name": "",
          "type": "address"
        }
      ],
      "stateMutability": "view",
      "type": "function"
    },
    {
      "inputs": [
        {
          "internalType": "address",
          "name": "user",
          "type": "address"
        }
      ],
      "name": "balanceOf",
      "outputs": [
        {
          "internalType": "uint128",
          "name": "",
          "type": "uint128"
        }
      ],
      "stateMutability": "view",
      "type": "function"
    },
    {
      "inputs": [],
      "name": "decimals",
      "outputs": [
        {
          "internalType": "uint8",
          "name": "",
          "type": "uint8"
        }
      ],
      "stateMutability": "view",
      "type": "function"
    },
    {
      "inputs": [
        {
          "internalType": "uint128",
          "name": "amount",
          "type": "uint128"
        }
      ],
      "name": "deposit",
      "outputs": [],
      "stateMutability": "nonpayable",
      "type": "function"
    },
    {
      "inputs": [
        {
          "internalType": "address",
          "name": "",
          "type": "address"
        }
      ],
      "name": "encryptedBalances",
      "outputs": [
        {
          "internalType": "uint128",
          "name": "",
          "type": "uint128"
        }
      ],
      "stateMutability": "view",
      "type": "function"
    },
    {
      "inputs": [],
      "name": "name",
      "outputs": [
        {
          "internalType": "string",
          "name": "",
          "type": "string"
        }
      ],
      "stateMutability": "view",
      "type": "function"
    },
    {
      "inputs": [],
      "name": "symbol",
      "outputs": [
        {
          "internalType": "string",
          "name": "",
          "type": "string"
        }
      ],
      "stateMutability": "view",
      "type": "function"
    },
    {
      "inputs": [
        {
          "internalType": "address",
          "name": "from",
          "type": "address"
        },
        {
          "internalType": "address",
          "name": "to",
          "type": "address"
        },
        {
          "internalType": "uint128",
          "name": "amount",
          "type": "uint128"
        }
      ],
      "name": "transferEncrypted",
      "outputs": [],
      "stateMutability": "nonpayable",
      "type": "function"
    },
    {
      "inputs": [
        {
          "internalType": "uint128",
          "name": "amount",
          "type": "uint128"
        }
      ],
      "name": "withdraw",
      "outputs": [],
      "stateMutability": "nonpayable",
      "type": "function"
    },
    {
      "inputs": [],
      "name": "zswapPool",
      "outputs": [
        {
          "internalType": "address",
          "name": "",
          "type": "address"
        }
      ],
      "stateMutability": "view",
      "type": "function"
    }
  ],
  "bytecode": "0x60c060405234801561001057600080fd5b506040516109d83803806109d883398101604081905261002f91610062565b6001600160a01b039182166080521660a052610095565b80516001600160a01b038116811461005d57600080fd5b919050565b6000806040838503121561007557600080fd5b61007e83610046565b915061008c60208401610046565b90509250929050565b60805160a0516109096100cf60003960008181610214015261059501526000818161015a01528181610352015261048401526109096000f3fe608060405234801561001057600080fd5b506004361061009e5760003560e01c806354469aea1161006657806354469aea1461019457806370a08231146101a757806395d89b41146101d9578063ab5a4d78146101fc578063e5cd48c31461020f57600080fd5b806302387a7b146100a357806306fdde03146100b85780631257b76f146100fa578063313ce5671461013b57806347e621b714610155575b600080fd5b6100b66100b136600461076e565b610236565b005b6100e46040518060400160405280600d81526020016c2d29bbb0b8102134ba31b7b4b760991b81525081565b6040516100f19190610790565b60405180910390f35b6101236101083660046107f6565b6000602081905290815260409020546001600160801b031681565b6040516001600160801b0390911681526020016100f1565b610143600881565b60405160ff90911681526020016100f1565b61017c7f000000000000000000000000000000000000000000000000000000000000000081565b6040516001600160a01b0390911681526020016100f1565b6100b66101a236600461076e565b61040b565b6101236101b53660046107f6565b6001600160a01b03166000908152602081905260409020546001600160801b031690565b6100e4604051806040016040528060048152602001637a42544360e01b81525081565b6100b661020a366004610811565b61058a565b61017c7f000000000000000000000000000000000000000000000000000000000000000081565b6000816001600160801b03161161028b5760405162461bcd60e51b815260206004820152601460248201527343616e6e6f74207769746864726177207a65726f60601b60448201526064015b60405180910390fd5b336000908152602081905260409020546001600160801b03808316911610156102ed5760405162461bcd60e51b8152602060048201526014602482015273496e73756666696369656e742062616c616e636560601b6044820152606401610282565b33600090815260208190526040812080548392906103159084906001600160801b031661086a565b82546101009290920a6001600160801b0381810219909316918316021790915560405163a9059cbb60e01b815233600482015290831660248201527f00000000000000000000000000000000000000000000000000000000000000006001600160a01b0316915063a9059cbb906044016020604051808303816000875af11580156103a4573d6000803e3d6000fd5b505050506040513d601f19601f820116820180604052508101906103c89190610891565b506040516001600160801b038216815233907f884edad9ce6fa2440d8a54cc123490eb96d2768479d49ff9c7366125a9424364906020015b60405180910390a250565b6000816001600160801b03161161045a5760405162461bcd60e51b815260206004820152601360248201527243616e6e6f74206465706f736974207a65726f60681b6044820152606401610282565b6040516323b872dd60e01b81523360048201523060248201526001600160801b03821660448201527f00000000000000000000000000000000000000000000000000000000000000006001600160a01b0316906323b872dd906064016020604051808303816000875af11580156104d5573d6000803e3d6000fd5b505050506040513d601f19601f820116820180604052508101906104f99190610891565b5033600090815260208190526040812080548392906105229084906001600160801b03166108b3565b92506101000a8154816001600160801b0302191690836001600160801b03160217905550336001600160a01b03167fe1fffcc4923d04b559f4d29a8bfc6cda04eb5b0d3c460751c2402c5c5cc9109c826001600160801b031660405161040091815260200190565b336001600160a01b037f000000000000000000000000000000000000000000000000000000000000000016146106025760405162461bcd60e51b815260206004820152601c60248201527f4f6e6c79205a5377617020706f6f6c2063616e207472616e73666572000000006044820152606401610282565b6001600160a01b0383166000908152602081905260409020546001600160801b038083169116101561066d5760405162461bcd60e51b8152602060048201526014602482015273496e73756666696369656e742062616c616e636560601b6044820152606401610282565b6001600160a01b0383166000908152602081905260408120805483929061069e9084906001600160801b031661086a565b82546101009290920a6001600160801b038181021990931691831602179091556001600160a01b0384166000908152602081905260408120805485945090926106e9918591166108b3565b92506101000a8154816001600160801b0302191690836001600160801b03160217905550816001600160a01b0316836001600160a01b03167f8fb556326f22f916c68b89ac61b2b94546e36d300cdf1f2398ecaada4b25740060405160405180910390a3505050565b80356001600160801b038116811461076957600080fd5b919050565b60006020828403121561078057600080fd5b61078982610752565b9392505050565b60006020808352835180602085015260005b818110156107be578581018301518582016040015282016107a2565b506000604082860101526040601f19601f8301168501019250505092915050565b80356001600160a01b038116811461076957600080fd5b60006020828403121561080857600080fd5b610789826107df565b60008060006060848603121561082657600080fd5b61082f846107df565b925061083d602085016107df565b915061084b60408501610752565b90509250925092565b634e487b7160e01b600052601160045260246000fd5b6001600160801b0382811682821603908082111561088a5761088a610854565b5092915050565b6000602082840312156108a357600080fd5b8151801515811461078957600080fd5b6001600160801b0381811683821601908082111561088a5761088a61085456fea2646970667358221220e7d3261c26d69b6d14e3b6b2cc1aaee2129f256cda972cd5abe6e834b763f33164736f6c63430008180033",
  "linkReferences": {},
  "deployedLinkReferences": {}
}