{
  "_format": "hh-sol-artifact-1",
  "contractName": "EncryptedETH",
  "sourceName": "contracts/tokens/EncryptedETH.sol",
  "abi": [
    {
      "inputs": [
        {
          "internalType": "address",
          "name": "_backingToken",
          "type": "address"
        },
        {
          "internalType": "address",
          "name": "_zswapPool",
          "type": "address"
        }
      ],
      "stateMutability": "nonpayable",
      "type": "constructor"
    },
    {
      "anonymous": false,
      "inputs": [
        {
          "indexed": true,
          "internalType": "address",
          "name": "user",
          "type": "address"
        },
        {
          "indexed": false,
          "internalType": "uint256",
          "name": "amount",
          "type": "uint256"
        }
      ],
      "name": "Deposit",
      "type": "event"
    },
    {
      "anonymous": false,
      "inputs": [
        {
          "indexed": true,
          "internalType": "address",
          "name": "from",
          "type": "address"
        },
        {
          "indexed": true,
          "internalType": "address",
          "name": "to",
          "type": "address"
        }
      ],
      "name": "EncryptedTransfer",
      "type": "event"
    },
    {
      "anonymous": false,
      "inputs": [
        {
          "indexed": true,
          "internalType": "address",
          "name": "user",
          "type": "address"
        },
        {
          "indexed": false,
          "internalType": "uint256",
          "name": "amount",
          "type": "uint256"
        }
      ],
      "name": "Withdraw",
      "type": "event"
    },
    {
      "inputs": [],
      "name": "backingToken",
      "outputs": [
        {
          "internalType": "address",
          "name": "",
          "type": "address"
        }
      ],
      "stateMutability": "view",
      "type": "function"
    },
    {
      "inputs": [
        {
          "internalType": "address",
          "name": "user",
          "type": "address"
        }
      ],
      "name": "balanceOf",
      "outputs": [
        {
          "internalType": "uint128",
          "name": "",
          "type": "uint128"
        }
      ],
      "stateMutability": "view",
      "type": "function"
    },
    {
      "inputs": [],
      "name": "decimals",
      "outputs": [
        {
          "internalType": "uint8",
          "name": "",
          "type": "uint8"
        }
      ],
      "stateMutability": "view",
      "type": "function"
    },
    {
      "inputs": [
        {
          "internalType": "uint128",
          "name": "amount",
          "type": "uint128"
        }
      ],
      "name": "deposit",
      "outputs": [],
      "stateMutability": "nonpayable",
      "type": "function"
    },
    {
      "inputs": [
        {
          "internalType": "address",
          "name": "",
          "type": "address"
        }
      ],
      "name": "encryptedBalances",
      "outputs": [
        {
          "internalType": "uint128",
          "name": "",
          "type": "uint128"
        }
      ],
      "stateMutability": "view",
      "type": "function"
    },
    {
      "inputs": [],
      "name": "name",
      "outputs": [
        {
          "internalType": "string",
          "name": "",
          "type": "string"
        }
      ],
      "stateMutability": "view",
      "type": "function"
    },
    {
      "inputs": [],
      "name": "symbol",
      "outputs": [
        {
          "internalType": "string",
          "name": "",
          "type": "string"
        }
      ],
      "stateMutability": "view",
      "type": "function"
    },
    {
      "inputs": [
        {
          "internalType": "address",
          "name": "from",
          "type": "address"
        },
        {
          "internalType": "address",
          "name": "to",
          "type": "address"
        },
        {
          "internalType": "uint128",
          "name": "amount",
          "type": "uint128"
        }
      ],
      "name": "transferEncrypted",
      "outputs": [],
      "stateMutability": "nonpayable",
      "type": "function"
    },
    {
      "inputs": [
        {
          "internalType": "uint128",
          "name": "amount",
          "type": "uint128"
        }
      ],
      "name": "withdraw",
      "outputs": [],
      "stateMutability": "nonpayable",
      "type": "function"
    },
    {
      "inputs": [],
      "name": "zswapPool",
      "outputs": [
        {
          "internalType": "address",
          "name": "",
          "type": "address"
        }
      ],
      "stateMutability": "view",
      "type": "function"
    }
  ],
  "bytecode": "0x60c060405234801561001057600080fd5b506040516109d93803806109d983398101604081905261002f91610062565b6001600160a01b039182166080521660a052610095565b80516001600160a01b038116811461005d57600080fd5b919050565b6000806040838503121561007557600080fd5b61007e83610046565b915061008c60208401610046565b90509250929050565b60805160a05161090a6100cf60003960008181610215015261059601526000818161015b015281816103530152610485015261090a6000f3fe608060405234801561001057600080fd5b506004361061009e5760003560e01c806354469aea1161006657806354469aea1461019557806370a08231146101a857806395d89b41146101da578063ab5a4d78146101fd578063e5cd48c31461021057600080fd5b806302387a7b146100a357806306fdde03146100b85780631257b76f146100fb578063313ce5671461013c57806347e621b714610156575b600080fd5b6100b66100b136600461076f565b610237565b005b6100e56040518060400160405280600e81526020016d5a5377617020457468657265756d60901b81525081565b6040516100f29190610791565b60405180910390f35b6101246101093660046107f7565b6000602081905290815260409020546001600160801b031681565b6040516001600160801b0390911681526020016100f2565b610144601281565b60405160ff90911681526020016100f2565b61017d7f000000000000000000000000000000000000000000000000000000000000000081565b6040516001600160a01b0390911681526020016100f2565b6100b66101a336600461076f565b61040c565b6101246101b63660046107f7565b6001600160a01b03166000908152602081905260409020546001600160801b031690565b6100e5604051806040016040528060048152602001630f48aa8960e31b81525081565b6100b661020b366004610812565b61058b565b61017d7f000000000000000000000000000000000000000000000000000000000000000081565b6000816001600160801b03161161028c5760405162461bcd60e51b815260206004820152601460248201527343616e6e6f74207769746864726177207a65726f60601b60448201526064015b60405180910390fd5b336000908152602081905260409020546001600160801b03808316911610156102ee5760405162461bcd60e51b8152602060048201526014602482015273496e73756666696369656e742062616c616e636560601b6044820152606401610283565b33600090815260208190526040812080548392906103169084906001600160801b031661086b565b82546101009290920a6001600160801b0381810219909316918316021790915560405163a9059cbb60e01b815233600482015290831660248201527f00000000000000000000000000000000000000000000000000000000000000006001600160a01b0316915063a9059cbb906044016020604051808303816000875af11580156103a5573d6000803e3d6000fd5b505050506040513d601f19601f820116820180604052508101906103c99190610892565b506040516001600160801b038216815233907f884edad9ce6fa2440d8a54cc123490eb96d2768479d49ff9c7366125a9424364906020015b60405180910390a250565b6000816001600160801b03161161045b5760405162461bcd60e51b815260206004820152601360248201527243616e6e6f74206465706f736974207a65726f60681b6044820152606401610283565b6040516323b872dd60e01b81523360048201523060248201526001600160801b03821660448201527f00000000000000000000000000000000000000000000000000000000000000006001600160a01b0316906323b872dd906064016020604051808303816000875af11580156104d6573d6000803e3d6000fd5b505050506040513d601f19601f820116820180604052508101906104fa9190610892565b5033600090815260208190526040812080548392906105239084906001600160801b03166108b4565b92506101000a8154816001600160801b0302191690836001600160801b03160217905550336001600160a01b03167fe1fffcc4923d04b559f4d29a8bfc6cda04eb5b0d3c460751c2402c5c5cc9109c826001600160801b031660405161040191815260200190565b336001600160a01b037f000000000000000000000000000000000000000000000000000000000000000016146106035760405162461bcd60e51b815260206004820152601c60248201527f4f6e6c79205a5377617020706f6f6c2063616e207472616e73666572000000006044820152606401610283565b6001600160a01b0383166000908152602081905260409020546001600160801b038083169116101561066e5760405162461bcd60e51b8152602060048201526014602482015273496e73756666696369656e742062616c616e636560601b6044820152606401610283565b6001600160a01b0383166000908152602081905260408120805483929061069f9084906001600160801b031661086b565b82546101009290920a6001600160801b038181021990931691831602179091556001600160a01b0384166000908152602081905260408120805485945090926106ea918591166108b4565b92506101000a8154816001600160801b0302191690836001600160801b03160217905550816001600160a01b0316836001600160a01b03167f8fb556326f22f916c68b89ac61b2b94546e36d300cdf1f2398ecaada4b25740060405160405180910390a3505050565b80356001600160801b038116811461076a57600080fd5b919050565b60006020828403121561078157600080fd5b61078a82610753565b9392505050565b60006020808352835180602085015260005b818110156107bf578581018301518582016040015282016107a3565b506000604082860101526040601f19601f8301168501019250505092915050565b80356001600160a01b038116811461076a57600080fd5b60006020828403121561080957600080fd5b61078a826107e0565b60008060006060848603121561082757600080fd5b610830846107e0565b925061083e602085016107e0565b915061084c60408501610753565b90509250925092565b634e487b7160e01b600052601160045260246000fd5b6001600160801b0382811682821603908082111561088b5761088b610855565b5092915050565b6000602082840312156108a457600080fd5b8151801515811461078a57600080fd5b6001600160801b0381811683821601908082111561088b5761088b61085556fea2646970667358221220f9cedea9fe74a3cc77ee1b51712b21ac5687e52c5f9fa238daa4dbcc2e39caab64736f6c63430008180033",
  "linkReferences": {},
  "deployedLinkReferences": {}
}