{
  "_format": "hh-sol-artifact-1",
  "contractName": "ZSwapSimple",
  "sourceName": "contracts/core/ZSwapSimple.sol",
  "abi": [
    {
      "inputs": [
        {
          "internalType": "address",
          "name": "_encryptedUSDC",
          "type": "address"
        },
        {
          "internalType": "address",
          "name": "_encryptedUSDT",
          "type": "address"
        }
      ],
      "stateMutability": "nonpayable",
      "type": "constructor"
    },
    {
      "anonymous": false,
      "inputs": [
        {
          "indexed": true,
          "internalType": "address",
          "name": "avsOperator",
          "type": "address"
        },
        {
          "indexed": false,
          "internalType": "bool",
          "name": "authorized",
          "type": "bool"
        }
      ],
      "name": "AVSAuthorizationChanged",
      "type": "event"
    },
    {
      "anonymous": false,
      "inputs": [
        {
          "indexed": true,
          "internalType": "uint256",
          "name": "batchId",
          "type": "uint256"
        },
        {
          "indexed": false,
          "internalType": "uint256",
          "name": "matchedAmount",
          "type": "uint256"
        },
        {
          "indexed": false,
          "internalType": "uint256",
          "name": "netSwappedAmount",
          "type": "uint256"
        },
        {
          "indexed": false,
          "internalType": "uint256",
          "name": "executedIntents",
          "type": "uint256"
        }
      ],
      "name": "BatchProcessed",
      "type": "event"
    },
    {
      "anonymous": false,
      "inputs": [
        {
          "indexed": true,
          "internalType": "uint256",
          "name": "batchId",
          "type": "uint256"
        },
        {
          "indexed": false,
          "internalType": "uint256",
          "name": "sealBlock",
          "type": "uint256"
        },
        {
          "indexed": false,
          "internalType": "uint256",
          "name": "totalIntents",
          "type": "uint256"
        }
      ],
      "name": "BatchSealed",
      "type": "event"
    },
    {
      "anonymous": false,
      "inputs": [
        {
          "indexed": true,
          "internalType": "uint256",
          "name": "intentId",
          "type": "uint256"
        },
        {
          "indexed": true,
          "internalType": "address",
          "name": "user",
          "type": "address"
        }
      ],
      "name": "IntentExecuted",
      "type": "event"
    },
    {
      "anonymous": false,
      "inputs": [
        {
          "indexed": true,
          "internalType": "uint256",
          "name": "intentId",
          "type": "uint256"
        },
        {
          "indexed": true,
          "internalType": "address",
          "name": "user",
          "type": "address"
        },
        {
          "indexed": false,
          "internalType": "address",
          "name": "tokenIn",
          "type": "address"
        },
        {
          "indexed": false,
          "internalType": "address",
          "name": "tokenOut",
          "type": "address"
        },
        {
          "indexed": false,
          "internalType": "uint256",
          "name": "batchId",
          "type": "uint256"
        }
      ],
      "name": "IntentSubmitted",
      "type": "event"
    },
    {
      "anonymous": false,
      "inputs": [
        {
          "indexed": false,
          "internalType": "bool",
          "name": "paused",
          "type": "bool"
        }
      ],
      "name": "PauseChanged",
      "type": "event"
    },
    {
      "inputs": [],
      "name": "BATCH_WINDOW",
      "outputs": [
        {
          "internalType": "uint256",
          "name": "",
          "type": "uint256"
        }
      ],
      "stateMutability": "view",
      "type": "function"
    },
    {
      "inputs": [
        {
          "internalType": "address",
          "name": "",
          "type": "address"
        }
      ],
      "name": "authorizedAVS",
      "outputs": [
        {
          "internalType": "bool",
          "name": "",
          "type": "bool"
        }
      ],
      "stateMutability": "view",
      "type": "function"
    },
    {
      "inputs": [
        {
          "internalType": "uint256",
          "name": "",
          "type": "uint256"
        }
      ],
      "name": "batches",
      "outputs": [
        {
          "internalType": "uint256",
          "name": "batchId",
          "type": "uint256"
        },
        {
          "internalType": "uint256",
          "name": "sealBlock",
          "type": "uint256"
        },
        {
          "internalType": "bool",
          "name": "isSealed",
          "type": "bool"
        },
        {
          "internalType": "bool",
          "name": "isProcessed",
          "type": "bool"
        },
        {
          "internalType": "uint256",
          "name": "totalIntents",
          "type": "uint256"
        }
      ],
      "stateMutability": "view",
      "type": "function"
    },
    {
      "inputs": [],
      "name": "currentBatchId",
      "outputs": [
        {
          "internalType": "uint256",
          "name": "",
          "type": "uint256"
        }
      ],
      "stateMutability": "view",
      "type": "function"
    },
    {
      "inputs": [],
      "name": "encryptedUSDC",
      "outputs": [
        {
          "internalType": "address",
          "name": "",
          "type": "address"
        }
      ],
      "stateMutability": "view",
      "type": "function"
    },
    {
      "inputs": [],
      "name": "encryptedUSDT",
      "outputs": [
        {
          "internalType": "address",
          "name": "",
          "type": "address"
        }
      ],
      "stateMutability": "view",
      "type": "function"
    },
    {
      "inputs": [
        {
          "internalType": "uint256",
          "name": "batchId",
          "type": "uint256"
        }
      ],
      "name": "getBatchIntents",
      "outputs": [
        {
          "internalType": "uint256[]",
          "name": "",
          "type": "uint256[]"
        }
      ],
      "stateMutability": "view",
      "type": "function"
    },
    {
      "inputs": [],
      "name": "getCurrentBatchInfo",
      "outputs": [
        {
          "internalType": "uint256",
          "name": "batchId",
          "type": "uint256"
        },
        {
          "internalType": "uint256",
          "name": "sealBlock",
          "type": "uint256"
        },
        {
          "internalType": "uint256",
          "name": "pendingIntents",
          "type": "uint256"
        }
      ],
      "stateMutability": "view",
      "type": "function"
    },
    {
      "inputs": [
        {
          "internalType": "address",
          "name": "user",
          "type": "address"
        }
      ],
      "name": "getUserIntents",
      "outputs": [
        {
          "internalType": "uint256[]",
          "name": "",
          "type": "uint256[]"
        }
      ],
      "stateMutability": "view",
      "type": "function"
    },
    {
      "inputs": [
        {
          "internalType": "uint256",
          "name": "",
          "type": "uint256"
        }
      ],
      "name": "intents",
      "outputs": [
        {
          "internalType": "uint256",
          "name": "intentId",
          "type": "uint256"
        },
        {
          "internalType": "address",
          "name": "user",
          "type": "address"
        },
        {
          "internalType": "address",
          "name": "tokenIn",
          "type": "address"
        },
        {
          "internalType": "address",
          "name": "tokenOut",
          "type": "address"
        },
        {
          "internalType": "uint128",
          "name": "amount",
          "type": "uint128"
        },
        {
          "internalType": "uint256",
          "name": "batchId",
          "type": "uint256"
        },
        {
          "internalType": "uint256",
          "name": "timestamp",
          "type": "uint256"
        },
        {
          "internalType": "enum ZSwapSimple.IntentStatus",
          "name": "status",
          "type": "uint8"
        }
      ],
      "stateMutability": "view",
      "type": "function"
    },
    {
      "inputs": [],
      "name": "nextIntentId",
      "outputs": [
        {
          "internalType": "uint256",
          "name": "",
          "type": "uint256"
        }
      ],
      "stateMutability": "view",
      "type": "function"
    },
    {
      "inputs": [],
      "name": "owner",
      "outputs": [
        {
          "internalType": "address",
          "name": "",
          "type": "address"
        }
      ],
      "stateMutability": "view",
      "type": "function"
    },
    {
      "inputs": [],
      "name": "paused",
      "outputs": [
        {
          "internalType": "bool",
          "name": "",
          "type": "bool"
        }
      ],
      "stateMutability": "view",
      "type": "function"
    },
    {
      "inputs": [
        {
          "internalType": "address",
          "name": "avsOperator",
          "type": "address"
        },
        {
          "internalType": "bool",
          "name": "authorized",
          "type": "bool"
        }
      ],
      "name": "setAVSAuthorization",
      "outputs": [],
      "stateMutability": "nonpayable",
      "type": "function"
    },
    {
      "inputs": [
        {
          "internalType": "bool",
          "name": "_paused",
          "type": "bool"
        }
      ],
      "name": "setPaused",
      "outputs": [],
      "stateMutability": "nonpayable",
      "type": "function"
    },
    {
      "inputs": [
        {
          "internalType": "uint256",
          "name": "batchId",
          "type": "uint256"
        },
        {
          "internalType": "uint256",
          "name": "matchedAmount",
          "type": "uint256"
        },
        {
          "internalType": "uint256",
          "name": "netSwappedAmount",
          "type": "uint256"
        },
        {
          "internalType": "uint256[]",
          "name": "successfulIntentIds",
          "type": "uint256[]"
        }
      ],
      "name": "settleBatch",
      "outputs": [],
      "stateMutability": "nonpayable",
      "type": "function"
    },
    {
      "inputs": [
        {
          "internalType": "address",
          "name": "tokenIn",
          "type": "address"
        },
        {
          "internalType": "address",
          "name": "tokenOut",
          "type": "address"
        },
        {
          "internalType": "uint128",
          "name": "amount",
          "type": "uint128"
        }
      ],
      "name": "submitIntent",
      "outputs": [
        {
          "internalType": "uint256",
          "name": "intentId",
          "type": "uint256"
        }
      ],
      "stateMutability": "nonpayable",
      "type": "function"
    },
    {
      "inputs": [
        {
          "internalType": "address",
          "name": "newOwner",
          "type": "address"
        }
      ],
      "name": "transferOwnership",
      "outputs": [],
      "stateMutability": "nonpayable",
      "type": "function"
    },
    {
      "inputs": [
        {
          "internalType": "address",
          "name": "",
          "type": "address"
        },
        {
          "internalType": "uint256",
          "name": "",
          "type": "uint256"
        }
      ],
      "name": "userIntents",
      "outputs": [
        {
          "internalType": "uint256",
          "name": "",
          "type": "uint256"
        }
      ],
      "stateMutability": "view",
      "type": "function"
    }
  ],
  "bytecode": "0x60c060405260016007553480156200001657600080fd5b5060405162001474380380620014748339810160408190526200003991620000e0565b6001600160a01b03808316608052811660a052600080546001600160a01b031916331790556200006b6005436200012e565b600181905560008181526004602052604090205560056200008d81436200012e565b6200009a90600162000151565b620000a691906200016d565b600180546000908152600460205260409020015550620001879050565b80516001600160a01b0381168114620000db57600080fd5b919050565b60008060408385031215620000f457600080fd5b620000ff83620000c3565b91506200010f60208401620000c3565b90509250929050565b634e487b7160e01b600052601160045260246000fd5b6000826200014c57634e487b7160e01b600052601260045260246000fd5b500490565b8082018082111562000167576200016762000118565b92915050565b808202811582820484141762000167576200016762000118565b60805160a0516112ab620001c9600039600081816103000152818161096b01526109a70152600081816102250152818161092f01526109e301526112ab6000f3fe608060405234801561001057600080fd5b50600436106101215760003560e01c806372674eb6116100ad578063b32c4d8d11610071578063b32c4d8d14610322578063bd97661c14610394578063df24cf7e146103b4578063f2fde38b146103c7578063fa3209b2146103da57600080fd5b806372674eb61461028e57806389c9c3ae146102cc5780638da5cb5b146102df5780639b7b7b1e146102f2578063b04b050f146102fb57600080fd5b80634ab25c71116100f45780634ab25c711461020d5780634c87a631146102205780635c975abb1461025f5780635f45e29214610273578063624d83cc1461027b57600080fd5b80630a763da11461012657806316c38b3c14610142578063467c89e91461015757806346a1a0951461018a575b600080fd5b61012f60015481565b6040519081526020015b60405180910390f35b610155610150366004610f3e565b6103ed565b005b61017a610165366004610f77565b60066020526000908152604090205460ff1681565b6040519015158152602001610139565b6101f9610198366004610f92565b60036020819052600091825260409091208054600182015460028301549383015460048401546005850154600686015460079096015494966001600160a01b03948516969085169594909316936001600160801b0390921692909160ff1688565b604051610139989796959493929190610fc1565b61015561021b366004611036565b610478565b6102477f000000000000000000000000000000000000000000000000000000000000000081565b6040516001600160a01b039091168152602001610139565b60005461017a90600160a01b900460ff1681565b61012f600581565b6101556102893660046110c6565b61076d565b6102b1600180546000818152600460208190526040909120928301549201549092565b60408051938452602084019290925290820152606001610139565b61012f6102da3660046110f9565b6107f7565b600054610247906001600160a01b031681565b61012f60025481565b6102477f000000000000000000000000000000000000000000000000000000000000000081565b610366610330366004610f92565b6004602081905260009182526040909120805460018201546003830154929093015490929160ff80821692610100909204169085565b604080519586526020860194909452911515928401929092529015156060830152608082015260a001610139565b6103a76103a2366004610f92565b610828565b6040516101399190611123565b61012f6103c2366004611167565b61088d565b6101556103d5366004610f77565b610cfe565b6103a76103e8366004610f77565b610d92565b6000546001600160a01b031633146104205760405162461bcd60e51b8152600401610417906111ba565b60405180910390fd5b60008054821515600160a01b0260ff60a01b199091161790556040517f8fb6c181ee25a520cf3dd6565006ef91229fcfe5a989566c2a3b8c115570cec59061046d90831515815260200190565b60405180910390a150565b3360009081526006602052604090205460ff166104cc5760405162461bcd60e51b81526020600482015260126024820152714e6f7420617574686f72697a65642041565360701b6044820152606401610417565b6007546001146105145760405162461bcd60e51b81526020600482015260136024820152721499595b9d1c985b98de4819195d1958dd1959606a1b6044820152606401610417565b60026007556000858152600460205260409020600381015460ff1661056e5760405162461bcd60e51b815260206004820152601060248201526f10985d18da081b9bdd081cd9585b195960821b6044820152606401610417565b6003810154610100900460ff16156105c85760405162461bcd60e51b815260206004820152601760248201527f426174636820616c72656164792070726f6365737365640000000000000000006044820152606401610417565b60038101805461ff00191661010017905560005b8281101561071c5760008484838181106105f8576105f86111de565b90506020020135905060006003600083815260200190815260200160002090508881600501541461066b5760405162461bcd60e51b815260206004820152601860248201527f496e74656e74206e6f7420696e207468697320626174636800000000000000006044820152606401610417565b6001600782015460ff16600481111561068657610686610fab565b146106c75760405162461bcd60e51b8152602060048201526011602482015270125b9d195b9d081b9bdd081cd9585b1959607a1b6044820152606401610417565b60078101805460ff1916600217905560018101546040516001600160a01b039091169083907f6852407858602d696344801f0181bc507c808c727c914bb6cdfeabd42431af3890600090a350506001016105dc565b50604080518681526020810186905290810183905286907f59d088174aee33f5ff817f6507a076513b43d5b623c805aaca6d79677742f6e79060600160405180910390a25050600160075550505050565b6000546001600160a01b031633146107975760405162461bcd60e51b8152600401610417906111ba565b6001600160a01b038216600081815260066020908152604091829020805460ff191685151590811790915591519182527fac940349638bd695c8726a646919340e350e03d1fdb7499b54430a2889817d7691015b60405180910390a25050565b6005602052816000526040600020818154811061081357600080fd5b90600052602060002001600091509150505481565b60008181526004602090815260409182902060020180548351818402810184019094528084526060939283018282801561088157602002820191906000526020600020905b81548152602001906001019080831161086d575b50505050509050919050565b60008054600160a01b900460ff16156108dd5760405162461bcd60e51b815260206004820152601260248201527110dbdb9d1c9858dd081a5cc81c185d5cd95960721b6044820152606401610417565b6007546001146109255760405162461bcd60e51b81526020600482015260136024820152721499595b9d1c985b98de4819195d1958dd1959606a1b6044820152606401610417565b60026007819055507f00000000000000000000000000000000000000000000000000000000000000006001600160a01b0316846001600160a01b031614801561099f57507f00000000000000000000000000000000000000000000000000000000000000006001600160a01b0316836001600160a01b0316145b80610a1757507f00000000000000000000000000000000000000000000000000000000000000006001600160a01b0316846001600160a01b0316148015610a1757507f00000000000000000000000000000000000000000000000000000000000000006001600160a01b0316836001600160a01b0316145b610a585760405162461bcd60e51b815260206004820152601260248201527124b73b30b634b2103a37b5b2b7103830b4b960711b6044820152606401610417565b60006005610a66814361120a565b610a7190600161122c565b610a7b9190611245565b60018054600090815260046020526040902001549091504310610ad257610aa3600154610dfc565b60018054906000610ab38361125c565b9091555050600180546000818152600460205260409020908155018190555b60028054906000610ae28361125c565b919050559150604051806101000160405280838152602001336001600160a01b03168152602001866001600160a01b03168152602001856001600160a01b03168152602001846001600160801b03168152602001600154815260200142815260200160006004811115610b5757610b57610fab565b90526000838152600360208181526040928390208451815590840151600180830180546001600160a01b03199081166001600160a01b03948516179091559486015160028401805487169184169190911790556060860151938301805490951693909116929092179092556080830151600480840180546fffffffffffffffffffffffffffffffff19166001600160801b039093169290921790915560a0840151600584015560c0840151600684015560e08401516007840180549193909260ff19909216918490811115610c2e57610c2e610fab565b02179055505060018054600090815260046020818152604080842060020180548087018255908552918420909101879055925482529181209091018054925090610c778361125c565b909155505033600081815260056020908152604080832080546001808201835591855293839020909301869055915482516001600160a01b038a8116825289169281019290925281830152905184917fe70703ac29278fc0840293572932f539f37b9348ceabe01d6e1881a0e32cced0919081900360600190a35060016007559392505050565b6000546001600160a01b03163314610d285760405162461bcd60e51b8152600401610417906111ba565b6001600160a01b038116610d705760405162461bcd60e51b815260206004820152600f60248201526e496e76616c6964206164647265737360881b6044820152606401610417565b600080546001600160a01b0319166001600160a01b0392909216919091179055565b6001600160a01b038116600090815260056020908152604091829020805483518184028101840190945280845260609392830182828015610881576020028201919060005260206000209081548152602001906001019080831161086d5750505050509050919050565b6000818152600460205260409020600381015460ff1615610e565760405162461bcd60e51b815260206004820152601460248201527310985d18da08185b1c9958591e481cd9585b195960621b6044820152606401610417565b60038101805460ff1916600117905560005b6002820154811015610ee9576000826002018281548110610e8b57610e8b6111de565b6000918252602082200154915060008281526003602052604090206007015460ff166004811115610ebe57610ebe610fab565b03610ee0576000818152600360205260409020600701805460ff191660011790555b50600101610e68565b50817fbb1da96a0aac1a1cfa17df5c7eb23d7078c7c2d3570bba1fbedbfb24291c67594383600401546040516107eb929190918252602082015260400190565b80358015158114610f3957600080fd5b919050565b600060208284031215610f5057600080fd5b610f5982610f29565b9392505050565b80356001600160a01b0381168114610f3957600080fd5b600060208284031215610f8957600080fd5b610f5982610f60565b600060208284031215610fa457600080fd5b5035919050565b634e487b7160e01b600052602160045260246000fd5b8881526001600160a01b0388811660208301528781166040830152861660608201526001600160801b038516608082015260a0810184905260c0810183905261010081016005831061102357634e487b7160e01b600052602160045260246000fd5b8260e08301529998505050505050505050565b60008060008060006080868803121561104e57600080fd5b853594506020860135935060408601359250606086013567ffffffffffffffff8082111561107b57600080fd5b818801915088601f83011261108f57600080fd5b81358181111561109e57600080fd5b8960208260051b85010111156110b357600080fd5b9699959850939650602001949392505050565b600080604083850312156110d957600080fd5b6110e283610f60565b91506110f060208401610f29565b90509250929050565b6000806040838503121561110c57600080fd5b61111583610f60565b946020939093013593505050565b6020808252825182820181905260009190848201906040850190845b8181101561115b5783518352928401929184019160010161113f565b50909695505050505050565b60008060006060848603121561117c57600080fd5b61118584610f60565b925061119360208501610f60565b915060408401356001600160801b03811681146111af57600080fd5b809150509250925092565b6020808252600a908201526927b7363c9037bbb732b960b11b604082015260600190565b634e487b7160e01b600052603260045260246000fd5b634e487b7160e01b600052601160045260246000fd5b60008261122757634e487b7160e01b600052601260045260246000fd5b500490565b8082018082111561123f5761123f6111f4565b92915050565b808202811582820484141761123f5761123f6111f4565b60006001820161126e5761126e6111f4565b506001019056fea264697066735822122061fda28c4f283fb57da76642c143aef86195db0cb6278a62483b96184ff5b80964736f6c63430008180033",
  "linkReferences": {},
  "deployedLinkReferences": {}
}